:020000040000FA
:0400000031EF35F0B7
:106A6200136A126A000EF86E0001A3EF35F00F0EE2
:106A7200C16E000EC26E000E936E000E946E000E7A
:106A8200956E000E966E9268000E816E000E826EFA
:106A9200000E836E000E846E1200026E0250D8B495
:106AA20055EF35F057EF35F05BEF35F08A808A927B
:106AB2005FEF35F08A928A825FEF35F0000E956EB5
:106AC2008A9601C08CFF8A8800D08A9800D08A906A
:106AD2008A921200056E000E046E800E056074EF3D
:106AE20035F076EF35F0A2EF35F0070E03647CEF58
:106AF20035F07EEF35F082EF35F0A2EF35F0A2EF00
:106B020035F005C013F003C012F03F0E05648CEFA0
:106B120035F08EEF35F094EF35F0400E055E010E44
:106B2200046E94EF35F08A9405504009016E0450CA
:106B32004EEC35F00350B809016E04504EEC35F0BE
:106B42008A84120038EC35F0010EE2EC35F0200EAA
:106B52000C6E200E0D6E0A0E106E0A0E116E7F0E56
:106B62000E6E030E0F6EB6EF35F080A0BBEF35F060
:106B7200BDEF35F0C0EF35F00D2AC0EF35F080A241
:106B8200C5EF35F0C7EF35F0CAEF35F00D06CAEFA5
:106B920035F0FE0E036E7B0E046E8EEC36F00FC0E7
:106BA20003F00E506BEC35F0010E036E6F0EFDEC30
:106BB20036F0DAEF35F0B6EF35F0B6EF35F000EF3C
:106BC20000F0066E000E836E8A9A210EE82EFED722
:106BD20000F08A8A8A988A908A928A9400D0C00E9B
:106BE200016E000E4EEC35F0C00E016E010E4EEC41
:106BF20035F0400E016E000E4EEC35F0400E016E87
:106C0200010E4EEC35F0B80E016E000E4EEC35F072
:106C1200B80E016E010E4EEC35F00604D8A414EF46
:106C220036F016EF36F022EF36F03F0E016E000E10
:106C32004EEC35F03F0E016E010E4EEC35F02EEFAC
:106C420036F03E0E016E000E4EEC35F03E0E016E39
:106C5200010E4EEC35F02EEF36F0000E32EC36F02F
:106C62001200036E000E056E070E05643BEF36F050
:106C72003DEF36F041EF36F08DEF36F08DEF36F026
:106C82008A94400E016E000E4EEC35F0400E016EFD
:106C9200010E4EEC35F00550B809016E000E4EECB7
:106CA20035F00550B809016E010E4EEC35F08A84BC
:106CB200000E046E3F0E046461EF36F063EF36F0AF
:106CC20067EF36F082EF36F082EF36F00350010DB7
:106CD200F3500008016E000E4EEC35F00350010D2A
:106CE200F3500008016E010E4EEC35F0042A3F0EFF
:106CF20004647EEF36F080EF36F067EF36F082EF15
:106D020036F0052A070E056489EF36F08BEF36F070
:106D120041EF36F08DEF36F01200000E086E000ED5
:106D2200076E000E0A6E070E0A649AEF36F09CEFA9
:106D320036F0A0EF36F0FAEF36F0FAEF36F0000E4A
:106D42000B6E010E0B64A8EF36F0AAEF36F0AEEF31
:106D520036F0F1EF36F0F1EF36F08A94400E016E24
:106D62000B504EEC35F00A50B809016E0B504EEC48
:106D720035F08A84000E096E3F0E0964C3EF36F0C7
:106D8200C5EF36F0C9EF36F0E6EF36F0E6EF36F053
:106D920007500324056E08500420066E05C0F6FF56
:106DA20006C0F7FF0800F5CF01F00B504EEC35F0AE
:106DB200074A082A092A3F0E0964E2EF36F0E4EF97
:106DC20036F0C9EF36F0E6EF36F00B2A010E0B640F
:106DD200EDEF36F0EFEF36F0AEEF36F0F1EF36F0E2
:106DE2000A2A070E0A64F8EF36F0FAEF36F0A0EF3F
:106DF20036F08A908A921200086E000E0B6E0A0E0E
:106E02000818D8A407EF37F009EF37F010EF37F082
:106E1200000E136E122A9CEF37F09CEF37F03F0EF4
:106E2200136416EF37F018EF37F01FEF37F0010E4B
:106E32000B6E1350C00F096E23EF37F013C009F029
:106E420023EF37F00850080DF3CF06F0F4CF07F028
:106E5200000E0A6E070E0A6431EF37F033EF37F097
:106E620037EF37F09AEF37F09AEF37F0800E09607C
:106E72003DEF37F03FEF37F08EEF37F03F0E09640A
:106E820045EF37F047EF37F05BEF37F0400E095E22
:106E9200010E0B6E8A9409504009016E0B504EECA4
:106EA20035F01250B809016E0B504EEC35F08A8461
:106EB2005BEF37F00350D8B461EF37F063EF37F090
:106EC20077EF37F00A500624046E000E0720056E95
:106ED2003B0E0424F66E6F0E0520F76E0800F5CF08
:106EE20001F00B504EEC35F08EEF37F00A500624CD
:106EF200046E000E0720056E3B0E0424F66E6F0E24
:106F02000520F76E0800F550FF0A016E0B504EEC9B
:106F120035F08EEF37F08EEF37F0092A0A2A070E86
:106F22000A6496EF37F098EF37F037EF37F09AEFC1
:106F320037F0080E132612000000000000000000C7
:106F4200000000000000000000000000000000003F
:106F5200000000000000000000000000000000002F
:106F6200000000000000000000000000000000001F
:106F7200000000000000000000000000000000000F
:106F820000000000000000000000000000000000FF
:106F920000000000000000000000000000000000EF
:106FA20000000000000000000000000000000000DF
:106FB20000000000000000000000000000000000CF
:106FC20000000000000000000000000000000000BF
:106FD20000000000000000000000000000000000AF
:106FE200000000000000000000000000000000009F
:106FF200000000000000000000000000000000008F
:10700200000000000000000000000000000000007E
:10701200000000000000000000000000000000006E
:10702200000000000000000000000000000000005E
:10703200000000000000000000000000000000004E
:107042000000065F5F060000000007070007070058
:1070520000147F7F147F7F1400242E6B6B3A120082
:1070620000466630180C666200307A4F5D377A4807
:10707200000407030000000000001C3E6341000002
:10708200000041633E1C000000082A3E1C1C3E2AF0
:107092000808083E3E080800000080E0600000008A
:1070A20000080808080808000000006060000000EE
:1070B200006030180C060301003E7F71594D7F3E7F
:1070C2000040427F7F40400000627359496F660072
:1070D20000226349497F360000181C16537F7F50F7
:1070E20000276745457D3900003C7E4B49793000D9
:1070F20000030371790F070000367F49497F36008C
:1071020000064F49693F1E0000000066660000004D
:10711200000080E66600000000081C3663410000A3
:10712200002424242424240000004163361C080087
:1071320000020351590F0600003E7F415D5D1F1E94
:10714200007C7E13137E7C0000417F7F49497F369D
:10715200001C3E634141632200417F7F41633E1C2C
:1071620000417F7F495D416300417F7F491D0103EB
:10717200001C3E6341517372007F7F08087F7F00CD
:107182000000417F7F41000000307040417F3F019D
:1071920000417F7F081C776300417F7F4140607020
:1071A200007F7F0E1C0E7F7F007F7F060C187F7F83
:1071B200001C3E6341633E1C00417F7F49090F066C
:1071C200001E3F21717F5E0000417F7F09197F66AB
:1071D20000266F4D597332000003417F7F41030047
:1071E200007F7F40407F7F00001F3F60603F1F00A5
:1071F200007F7F3018307F7F0043673C183C674335
:1072020000074F78784F070000476371594D677345
:1072120000007F7F41410000000103060C1830602E
:10722200000041417F7F000000080C0603060C08A5
:10723200008080808080808080000003070400003E
:1072420000207454543C784000417F3F48487830D5
:1072520000387C44446C280000307848493F7F4025
:1072620000387C54545C180000487E7F49030200B9
:107272000098BCA4A4F87C0400417F7F08047C78B9
:107282000000447D7D4000000060E08080FD7D00C4
:1072920000417F7F10386C440000417F7F40000036
:1072A200007C7C18381C7C78007C7C04047C780090
:1072B20000387C44447C38000084FCF8A4243C1848
:1072C20000183C24A4F8FC8400447C784C041C186C
:1072D20000485C54547424000000043E7F4424009F
:1072E200003C7C40403C7C40001C3C60603C1C00FC
:1072F200003C7C7038707C3C00446C3810386C4424
:10730200009CBCA0A0FC7C00004C64745C4C64003B
:107312000008083E77414100000000007777000036
:10732200004141773E080800000203010302030105
:107332000070784C464C7870000E9F91B1FB4A0069
:10734200003A7A40407A7A4000387C54555D190000
:107352000002237555557D7B42217554547D794039
:1073620000217555547C784000207457577C784032
:1073720000183CA4A4E4400000023B7D55555D1B6F
:1073820002397D54545D190000397D55545C180052
:107392000001457C7C410100000203457D7D4302E2
:1073A2000001457D7C40000000797D1612167D7932
:1073B2000070782B2B78700000447C7C555545007A
:1073C20000207454547C7C54547C7E0B097F7F498A
:1073D20000327B49497B320000327A48487A3200D7
:1073E20000327A4A48783000003A7B41417B7A4049
:1073F200003A7A4240787840009ABAA0A0FA7A001D
:107402000001193C66663C19013D7D40407D3D000E
:1074120000183C24E7E7242400687E7F4943662065
:10742200002B2FFCFC2F2B0000FFFF09092FF6F881
:10743200A040C088FE7F090302207454557D794024
:107442000000447D7D410000003078484A7A3200D5
:1074520000387840427A7A40007A7A0A0A7A7000D2
:10746200007D7D19317D7D000000262F292F2F28D8
:107472000000262F292F26000030784D456020007D
:1074820000383808080808000008080808383800DA
:10749200004F6F3018CCEEBB914F6F30186C76FBFB
:1074A200F90000007B7B000000081C3622081C3615
:1074B2002222361C0822361C08AA005500AA0055B2
:1074C20000AA55AA55AA55AA55DDFFAA77DDAAFF3B
:1074D20077000000FFFF000000101010FFFF000007
:1074E20000141414FFFF0000001010FFFF00FFFF44
:1074F200001010F0F010F0F000141414FCFC000066
:10750200001414F7F700FFFF000000FFFF00FFFF69
:10751200001414F4F404FCFC0014141717101F1FB9
:107522000010101F1F101F1F001414141F1F000033
:1075320000101010F0F00000000000001F1F1010DB
:10754200101010101F1F101010101010F0F010105B
:1075520010000000FFFF101010101010101010107B
:1075620010101010FFFF101010000000FFFF141485
:10757200140000FFFF00FFFF1000001F1F1017176D
:10758200140000FCFC04F4F4141414171710171759
:10759200141414F4F404F4F4140000FFFF00F7F7D9
:1075A2001414141414141414141414F7F700F7F721
:1075B20014141414171714141410101F1F101F1F63
:1075C20010141414F4F41414141010F0F010F0F059
:1075D2001000001F1F101F1F100000001F1F141497
:1075E20014000000FCFC1414140000F0F010F0F081
:1075F200101010FFFF10FFFF10141414FFFF1414DB
:10760200141010101F1F000000000000F0F01010F6
:1076120010FFFFFFFFFFFFFFFFF0F0F0F0F0F0F0D0
:10762200F0FFFFFFFF0000000000000000FFFFFF6F
:10763200FF0F0F0F0F0F0F0F0F387C446C386C4485
:1076420000FCFE2A2A3E1400007E7E02020606008C
:1076520000027E7E027E7E020063775D49636300E4
:1076620000387C447C3C04040080FE7E20203E1EC8
:10767200000406027E7C06020099BDE7E7BD990080
:10768200001C3E6B496B3E1C004C7E7301737E4CAA
:107692000030784A4F7D390000183C243C3C243CA1
:1076A2001898FC643C3E273D1800000000000000D2
:1076B20000000000000000000000000000000000C8
:1076C20000000000000000000000000000000000B8
:1076D20000000000000000000000000000000000A8
:1076E2000000000000000000000000000000000098
:1076F2000000000000000000000000000000000088
:107702000000000000000000000000000000000077
:107712000000000000000000000000000000000067
:107722000000000000000000000000000000000057
:107732000000000000000000000000000000000047
:107742000000000000000000000000000000000037
:107752000000000000000000000000000000000027
:107762000000000000000000000000000000000017
:107772000000000000000000000000000000000007
:1077820000000000000000000000000000000000F7
:1077920000000000000000000000000000000000E7
:1077A20000000000000000000000000000000000D7
:1077B20000000000000000000000000000000000C7
:1077C20000000000000000000000000000000000B7
:1077D20000000000000000000000000000000000A7
:1077E2000000000000000000000000000000000097
:1077F2000000000000000000000000000000000087
:107802000000000000000000000000000000000076
:107812000000000000000000000000000000000066
:107822000000000000000000000000000000000056
:107832000000000000000000000000000000000046
:1078420000000000000000000000C0404040C0C036
:10785200404040C00040E0E00000000000000000A6
:107862000000602000000000000000000000000096
:107872000000000000000000000040E0E000000006
:1078820000000000000000000000000000000000F6
:1078920000000000000000000000000000000000E6
:1078A20000000000000000000000000000000000D6
:1078B20000000000000000000000000000000000C6
:1078C2000000000000000000000000000000FFFFB8
:1078D200000000000000FFFF000202FEF80000F8B6
:1078E200941212161C0000F8CC020202069C7800C8
:1078F2000404FE040202028EFC0000FFFF000202EA
:10790200FEF80000CC662212FEFC0004FEFE00021D
:1079120002FEFC0000F8941212161C000000000087
:107922000000000000000000000000000000000055
:107932000000000000000000000000000000000045
:10794200000000000000000000000000020203032B
:10795200020200000002030302000203030200000D
:1079620001030303010000000103020202010000FF
:1079720020303F2102020201000002030302000242
:1079820003030200030202000303000203030200D6
:1079920002030302000001030303010000000000D0
:1079A20000000000000000000000000000000000D5
:1079B20000000000000000000000000000000000C5
:1079C20000000000000000000000000000000000B5
:1079D20000000000000000000000000000000000A5
:1079E2000000000000000000000000000000000095
:1079F2000000000000000000000000000000000085
:107A02000000000000000000000000000000000074
:107A12000000000000000000000000000000000064
:107A22000000000000000000000000000000000054
:107A32000000000000000000000000000000000044
:107A42000000000000000000000000000000000034
:107A52000000000000000000000000000000000024
:107A62000000000000000000000000000000000014
:107A72000000000000000000000000000000000004
:107A820000000000000000000000000000000000F4
:107A920000000000000000000000000000000000E4
:107AA20000000000000000000000000000000000D4
:107AB20000000000000000000000000000000000C4
:107AC20000000000000000000000000000000000B4
:107AD20000000000000000000000000000000000A4
:107AE2000000000000000000000000000000000094
:107AF2000000000000000000000000000000000084
:107B02000000000000000000000000000000000073
:107B12000000000000000000000000000000000063
:107B22000000000000000000000000000000000053
:107B3200000000000000000000000000005C000CDB
:107B4200000C7C287C7C447C241048285408000CBF
:107B520000384400443800201008103810804000DB
:107B6200101010004000201008384438007C0064D7
:107B720054484454281C107C4C5424385420047417
:107B82000C28542808543800500080500010284413
:107B9200282828442810045408384C5C7814787C2F
:107BA20054283844447C44387C54447C140438447B
:107BB200347C107C007C0020403C7C106C7C40407B
:107BC2007C087C7C047C7C447C7C14083844787C73
:107BD2001468485424047C047C407C3C403C7C2057
:107BE2007C6C106C1C601C64544C7C44000810209B
:107BF200447C00080408808080040800FFFFFFFF27
:107C0200FFFFFFFFFFFFFFFFFFFFFFFFFFFFFFFF82
:107C1200FFFFFFFFFFFFFFFFFFFFFFFFFFFFFFFF72
:107C2200FFFFFFFFFFFFFFFFFFFFFFFFFFFFFFFF62
:107C3200FFFFFFFFFFFFFFFFFFFFFFFFFFFFFFFF52
:107C4200FFFFFFFFFFFFFFFFFFFFFFFFFFFFFFFF42
:107C5200FFFFFFFFFFFFFFFFFFFFFFFFFFFFFFFF32
:107C6200FFFFFFFFFFFFFFFFFFFFFFFFFFFFFFFF22
:107C7200FFFFFFFFFFFFFFFFFFFFFFFFFFFFFFFF12
:107C8200FFFFFFFFFFFFFFFFFFFFFFFFFFFFFFFF02
:107C9200FFFFFFFFFFFFFFFFFFFFFFFFFFFFFFFFF2
:107CA200FFFFFFFFFFFFFFFFFFFFFFFFFFFFFFFFE2
:107CB200FFFFFFFFFFFFFFFFFFFFFFFFFFFFFFFFD2
:107CC200FFFFFFFFFFFFFFFFFFFFFFFFFFFFFFFFC2
:107CD200FFFFFFFFFFFFFFFFFFFFFFFFFFFFFFFFB2
:107CE200FFFFFFFFFFFFFFFFFFFFFFFFFFFFFFFFA2
:107CF200FFFFFFFFFFFFFFFFFFFFFFFF000000008E
:107D02000000000000000000000000000000000071
:107D12000000000000000000000000000000000061
:107D22000000000000000000000000000000000051
:107D32000000000000000000000000000000000041
:107D42000000000000000000000000000000000031
:107D52000000000000000000000000000000000021
:107D62000000000000000000000000000000000011
:107D72000000000000000000000000000000000001
:107D820000000000000000000000000000000000F1
:107D920000000000000000000000000000000000E1
:107DA20000000000000000000000000000000000D1
:107DB20000000000000000000000000000000000C1
:107DC20000000000000000000000000000000000B1
:107DD20000000000000000000000000000000000A1
:107DE2000000000000000000000000000000000091
:107DF2000000000000000000000000000000000081
:107E02000000000000000000000000000000000070
:107E12000000000000000000000000000000000060
:107E22000000000000000000000000000000000050
:107E32000000000000000000000000000000000040
:107E42000000000000000000000000000000000030
:107E52000000000000000000000000000000000020
:107E62000000000000000000000000000000000010
:107E72000000000000000000000000000000000000
:107E820000000000000000000000000000000000F0
:107E920000000000000000000000000000000000E0
:107EA20000000000000000000000000000000000D0
:107EB20000000000000000000000000000000000C0
:107EC20000000000000000000000000000000000B0
:107ED20000000000000000000000000000000000A0
:107EE2000000000000000000000000000000000090
:107EF200000000000000000000000000FFFFFFFF84
:107F0200FFFFFFFFFFFFFFFFFFFFFFFFFFFFFFFF7F
:107F1200FFFFFFFFFFFFFFFFFFFFFFFFFFFFFFFF6F
:107F2200FFFFFFFFFFFFFFFFFFFFFFFFFFFFFFFF5F
:107F3200FFFFFFFFFFFFFFFFFFFFFFFFFFFFFFFF4F
:107F4200FFFFFFFFFFFFFFFFFFFFFFFFFFFFFFFF3F
:107F5200FFFFFFFFFFFFFFFFFFFFFFFFFFFFFFFF2F
:107F6200FFFFFFFFFFFFFFFFFFFFFFFFFFFFFFFF1F
:107F7200FFFFFFFFFFFFFFFFFFFFFFFFFFFFFFFF0F
:107F8200FFFFFFFFFFFFFFFFFFFFFFFFFFFFFFFFFF
:107F9200FFFFFFFFFFFFFFFFFFFFFFFFFFFFFFFFEF
:107FA200FFFFFFFFFFFFFFFFFFFFFFFFFFFFFFFFDF
:107FB200FFFFFFFFFFFFFFFFFFFFFFFFFFFFFFFFCF
:107FC200FFFFFFFFFFFFFFFFFFFFFFFFFFFFFFFFBF
:107FD200FFFFFFFFFFFFFFFFFFFFFFFFFFFFFFFFAF
:107FE200FFFFFFFFFFFFFFFFFFFFFFFFFFFFFFFF9F
:0D7FF200FFFFFFFFFFFFFFFFFFFFFFFF008E
:020000040020DA
:08000000FFFFFFFFFFFFFFFF00
:020000040030CA
:0E000000000C191EFF8381FF0FC00FE00F40A0
:00000001FF
