:020000040000FA
:0400000033EF29F0C1
:10524E0012004FEC29F0010E28EC2BF086EC35F015
:10525E0031EF29F000EF00F000EE60F0340EEE6A50
:10526E00E806FDE15F6A5E6A000EF86E000128EF47
:10527E0029F07F0E256E8FEC2EF01950030B020FC6
:10528E00266E25C023F026C024F04EEF29F0120022
:10529E000F0EC16E000EC26E000E936E000E946E57
:1052AE00000E956E000E966E9268000E816E000EC8
:1052BE00826E000E836E000E846E1200016E01501F
:1052CE00D8B46CEF29F06EEF29F072EF29F08A80D6
:1052DE008A9274EF29F08A928A8295688A868A88E1
:1052EE0000D083CF02F08A9800D08A908A92025022
:1052FE0012000A6E0A50D8B487EF29F089EF29F010
:10530E008DEF29F08A808A9291EF29F08A928A8213
:10531E0091EF29F0000E956E8A9609C08CFF8A884F
:10532E0000D08A9800D08A908A92120014BEAAEFFA
:10533E0029F0145006E11304D8B0A8EF29F0AAEF13
:10534E0029F0B8EF29F013C015F014C016F0151E91
:10535E00161E154A162A15C013F016C014F0BEEF0D
:10536E0029F013C013F014C014F0BEEF29F0120090
:10537E00000E106E000E0F6ED2EF29F00EC001F06F
:10538E00026A0CC003F00DC004F020EC2EF00F4AA0
:10539E00102AD2EF29F00F500A24D96E10500B208C
:1053AE00DA6EDF500E6E0E50D8A4E0EF29F0E2EF69
:1053BE0029F0C5EF29F0E4EF29F0120001C005F045
:1053CE0002C006F0EFEF29F0014A022AEFEF29F0B2
:1053DE0001C0D9FF02C0DAFFDF50D8A4F9EF29F0DF
:1053EE00FBEF29F0EBEF29F0FDEF29F005C003F0FC
:1053FE0006C004F0031E041E034A042A01500324AF
:10540E00016E02500420026E0DEF2AF012005C0EA7
:10541E000001966F000E976F58C098F059C099F022
:10542E00000E9B6F000E9A6F000E9D6F000E9C6F0C
:10543E00980E506E000E516E5AC052F05BC053F073
:10544E00960E546E000E556E3DEC2AF050C094F040
:10545E0051C095F000019A515824D96E9B51592094
:10546E00DA6E000EDF6E3CEF2AF0120052C056F0DC
:10547E0053C057F0000E0001616F000E606F5DEFBC
:10548E002AF050C040F051C041F0560E426E000E50
:10549E00436E54C044F055C045F011EC33F040500B
:1054AE0000016027415061235DEF2AF056C0F6FFE0
:1054BE0057C0F7FF0800F5500009D8A469EF2AF08D
:1054CE006BEF2AF048EF2AF060C050F061C051F047
:1054DE0012000D6E000E0C6E800E0D6079EF2AF02C
:1054EE007BEF2AF0A7EF2AF0070E0B6481EF2AF06C
:1054FE0083EF2AF087EF2AF0A7EF2AF0A7EF2AF022
:10550E000DC05FF00BC05EF03F0E0D6491EF2AF000
:10551E0093EF2AF099EF2AF0400E0D5E010E0C6EFD
:10552E0099EF2AF08A940D504009096E0C5080ECC8
:10553E0029F00B50B809096E0C5080EC29F08A84C2
:10554E00120003500410D8B4AFEF2AF0B1EF2AF0D6
:10555E00DFEF2AF0010E056EBBEF2AF0D89003366E
:10556E000436052ABBEF2AF004AEC0EF2AF0C2EFD4
:10557E002AF0B5EF2AF0C6EF2AF0C6EF2AF0035054
:10558E00015C04500258D8A0CFEF2AF0D1EF2AF0D8
:10559E00D7EF2AF00350015E0450025AD7EF2AF0DB
:1055AE00D89004320332052EC6EF2AF0DFEF2AF030
:1055BE0001C001F002C002F01200000E056E000ED6
:1055CE00046E16EF2BF0000E076E000E066E07BE71
:1055DE00FAEF2AF0075009E10A0E065CD8A0FAEF9E
:1055EE002AF0FCEF2AF000EF2BF012EF2BF012EF67
:1055FE002BF0064A072A07BE0EEF2BF0075009E1E3
:10560E000A0E065CD8A00EEF2BF010EF2BF000EF79
:10561E002BF012EF2BF0044A052A16EF2BF0015057
:10562E00045C0550800A036E0250800A0358D8A00D
:10563E0023EF2BF025EF2BF0EAEF2AF027EF2BF0DC
:10564E0012000E6E000E836E8A9A210EE82EFED781
:10565E0000F08A8A8A988A908A928A9400D0C00E24
:10566E00096E000E80EC29F0C00E096E010E80EC62
:10567E0029F0400E096E000E80EC29F0400E096EE6
:10568E00010E80EC29F0B80E096E000E80EC29F0A8
:10569E00B80E096E010E80EC29F00E04D8A45AEF54
:1056AE002BF05CEF2BF068EF2BF03F0E096E000E27
:1056BE0080EC29F03F0E096E010E80EC29F074EF9C
:1056CE002BF03E0E096E000E80EC29F03E0E096E98
:1056DE00010E80EC29F074EF2BF0000E20EC2CF074
:1056EE00120020EE11F0070EDE6AE806FDE280EFF2
:1056FE002BF001A085EF2BF087EF2BF099EF2BF01D
:10570E00095011260A5012220B5013220C5014224B
:10571E000D5015220E5016220F501722105018221F
:10572E0099EF2BF0D89009360A360B360C360D361B
:10573E000E360F361036D890083207320632053242
:10574E0004320332023201320150021003100410EF
:10575E000510061007100810D8A4B8EF2BF0BAEFFA
:10576E002BF080EF2BF011C001F012C002F013C02D
:10577E0003F014C004F015C005F016C006F017C0F3
:10578E0007F018C008F0120005EF2CF01650D8B430
:10579E00D3EF2BF0D5EF2BF0EBEF2BF017C00BF078
:1057AE0014C0F6FF15C0F7FFF86A070EF76403D0B2
:1057BE000800F55005D0F6CFE9FFF7CFEAFFEF501E
:1057CE0076EC2FF001EF2CF017C00BF014C0F6FFA3
:1057DE0015C0F7FFF86A070EF76403D00800F550FE
:1057EE0005D0F6CFE9FFF7CFEAFFEF500CEC30F023
:1057FE0001EF2CF0144A152A05EF2CF014C0F6FF19
:10580E0015C0F7FFF86A070EF76403D00800F550CD
:10581E0005D0F6CFE9FFF7CFEAFFEF500009D8A485
:10582E001BEF2CF01DEF2CF0CDEF2BF01FEF2CF01B
:10583E0012000B6E000E0D6E070E0D6429EF2CF08C
:10584E002BEF2CF02FEF2CF07BEF2CF07BEF2CF0CE
:10585E008A94400E096E000E80EC29F0400E096EFF
:10586E00010E80EC29F00D50B809096E000E80EC87
:10587E0029F00D50B809096E010E80EC29F08A84CA
:10588E00000E0C6E3F0E0C644FEF2CF051EF2CF00F
:10589E0055EF2CF070EF2CF070EF2CF00B50010D3B
:1058AE00F3500008096E000E80EC29F00B50010D2C
:1058BE00F3500008096E010E80EC29F00C2A3F0E01
:1058CE000C646CEF2CF06EEF2CF055EF2CF070EFAB
:1058DE002CF00D2A070E0D6477EF2CF079EF2CF0DB
:1058EE002FEF2CF07BEF2CF01200000E0B6E020E41
:1058FE000D6E050E0D6486EF2CF088EF2CF08CEFFC
:10590E002CF0D8EF2CF0D8EF2CF08A94400E096EC4
:10591E00000E80EC29F0400E096E010E80EC29F08D
:10592E000D50B809096E000E80EC29F00D50B80923
:10593E00096E010E80EC29F08A84000E0C6E3F0E6B
:10594E000C64ACEF2CF0AEEF2CF0B2EF2CF0CDEFF0
:10595E002CF0CDEF2CF00B50010DF3500008096E1A
:10596E00000E80EC29F00B50010DF3500008096E6B
:10597E00010E80EC29F00C2A3F0E0C64C9EF2CF0BE
:10598E00CBEF2CF0B2EF2CF0CDEF2CF00D2A050E54
:10599E000D64D4EF2CF0D6EF2CF08CEF2CF0D8EF6A
:1059AE002CF01200000166A1DFEF2CF0E1EF2CF0DD
:1059BE00EDEF2CF013C00AF014C00BF011C00CF078
:1059CE0012C00DF0BFEC29F0EDEF2CF016BEF2EF89
:1059DE002CF0F4EF2CF0FAEF2CF015C01AF016C0E4
:1059EE001BF0FEEF2CF0000E1B6E000E1A6E000E5A
:1059FE00196E000E186E12EF2DF0000E026E200EB4
:105A0E00016E11C003F012C004F020EC2EF0184A03
:105A1E00192A12EF2DF01A50185C1950800A176EC1
:105A2E001B50800A1758D8A01FEF2DF021EF2DF034
:105A3E0004EF2DF0000166B127EF2DF029EF2DF0C8
:105A4E0035EF2DF013C00AF014C00BF011C00CF09E
:105A5E0012C00DF0BFEC29F035EF2DF013C001F0A0
:105A6E0014C002F0E5EC29F01A500124116E1B50FF
:105A7E000220126E43EF2DF012000F6E000E116E0B
:105A8E003F0E0F644DEF2DF04FEF2DF055EF2DF033
:105A9E00400E0F5E010E116E55EF2DF08A940F9E83
:105AAE000F8C0FC009F0115080EC29F00BC001F0E3
:105ABE00026A000E046E080E036E00EC2FF0015009
:105ACE00BF0BB809096E115080EC29F08A84115071
:105ADE0065EC29F0115065EC29F0106E8A940FC018
:105AEE0009F0115080EC29F00C50D8B481EF2DF054
:105AFE0083EF2DF096EF2DF00BC00DF0070E0D1667
:105B0E00010E0E6E0D2A8EEF2DF0D8900E360D2E44
:105B1E008CEF2DF00E501010106EAAEF2DF00BC062
:105B2E000DF0070E0D16010E0E6E0D2AA1EF2DF0C3
:105B3E00D8900E360D2E9FEF2DF00E50FF0A10143A
:105B4E00106EAAEF2DF08A8410C009F0115080EC6F
:105B5E0029F01200000E106E000E0F6E000E126E67
:105B6E00070E1264BDEF2DF0BFEF2DF0C3EF2DF039
:105B7E001DEF2EF01DEF2EF0000E136E010E1364AE
:105B8E00CBEF2DF0CDEF2DF0D1EF2DF014EF2EF059
:105B9E0014EF2EF08A94400E096E135080EC29F00B
:105BAE001250B809096E135080EC29F08A84000E49
:105BBE00116E3F0E1164E6EF2DF0E8EF2DF0ECEFD5
:105BCE002DF009EF2EF009EF2EF00F500B240D6E75
:105BDE0010500C200E6E0DC0F6FF0EC0F7FF080021
:105BEE00F5CF09F0135080EC29F00F4A102A112A34
:105BFE003F0E116405EF2EF007EF2EF0ECEF2DF0B7
:105C0E0009EF2EF0132A010E136410EF2EF012EF8F
:105C1E002EF0D1EF2DF014EF2EF0122A070E126493
:105C2E001BEF2EF01DEF2EF0C3EF2DF08A908A920F
:105C3E00120003500410D8B427EF2EF029EF2EF0E7
:105C4E0034EF2EF003500410D8A430EF2EF032EFC4
:105C5E002EF039EF2EF034EF2EF0015027EC29F014
:105C6E008EEF2EF020EE04F00350D9260450DA22E7
:105C7E00DE50DE10D8B446EF2EF048EF2EF065EF72
:105C8E002EF020EE04F00350D9260450DA2210EE46
:105C9E0002F00350E1260450E222DE50E65CE650AC
:105CAE00800A096EDE50800A0958D8B061EF2EF0D6
:105CBE0063EF2EF08EEF2EF065EF2EF020EE02F059
:105CCE000350D9260450DA22DECF05F0DDCF06F0E0
:105CDE0003C0D9FF04C0DAFFDECF07F0DDCF08F036
:105CEE0005500724D96E06500820DA6E01C0DFFF7A
:105CFE0020EE02F00350D9260450DA22DE2A000EDE
:105D0E00DD228EEF2EF08EEF2EF08EEF2EF01200A3
:105D1E008CC001F08DC002F08EC003F08FC004F075
:105D2E0090C005F091C006F092C007F093C008F045
:105D3E002D0E096E7F0E0A6E950E0B6E4C0E0C6EAE
:105D4E002D0E0D6EF40E0E6E510E0F6E580E106E51
:105D5E0078EC2BF001C01BF002C01CF003C01DF04C
:105D6E0004C01EF005C01FF006C020F007C021F0D1
:105D7E0008C022F0010E1B2400018C6F000E1C20A7
:105D8E008D6F000E1D208E6F000E1E208F6F000E69
:105D9E001F20906F000E2020916F000E2120926F19
:105DAE00000E2220936F8CC01BF08DC01CF08EC095
:105DBE001DF08FC01EF090C01FF091C020F092C059
:105DCE0021F093C022F0080EF6EF2EF0D89022327A
:105DDE00213220321F321E321D321C321B32E82E6F
:105DEE00EDEF2EF01BC019F01DC01AF0FFEF2EF0D4
:105DFE001200000E066E04BE09EF2FF007EF2FF013
:105E0E0011EF2FF0036C041ED8B0042A010E066E9B
:105E1E0011EF2FF002BE18EF2FF016EF2FF020EF3C
:105E2E002FF0016C021ED8B0022A010E061A20EFC6
:105E3E002FF0000E086E000E076E03500410D8B43B
:105E4E002BEF2FF02DEF2FF061EF2FF0010E056EDF
:105E5E0037EF2FF0D89003360436052A37EF2FF0A0
:105E6E0004AE3CEF2FF03EEF2FF031EF2FF042EF6C
:105E7E002FF042EF2FF0D890073608360350015C12
:105E8E0004500258D8A04EEF2FF050EF2FF057EFDE
:105E9E002FF00350015E0450025A078057EF2FF087
:105EAE00D89004320332052E42EF2FF061EF2FF01F
:105EBE0061EF2FF00650D8B467EF2FF069EF2FF097
:105ECE006FEF2FF0076C081ED8B0082A6FEF2FF077
:105EDE0007C001F008C002F075EF2FF01200106E2F
:105EEE00000E136E0A0E1018D8A480EF2FF082EF5A
:105EFE002FF089EF2FF0000E5F6E5E2A0BEF30F061
:105F0E000BEF30F03F0E5F648FEF2FF091EF2FF01D
:105F1E0098EF2FF0010E136E5F50C00F116E9CEFB5
:105F2E002FF05FC011F09CEF2FF01050080DF3CF43
:105F3E000EF0F4CF0FF0000E126E070E1264AAEFE1
:105F4E002FF0ACEF2FF0B0EF2FF009EF30F009EF9C
:105F5E0030F03F0E1164B6EF2FF0B8EF2FF0CCEF0C
:105F6E002FF0400E115E010E136E8A9411504009EF
:105F7E00096E135080EC29F05E50B809096E13506B
:105F8E0080EC29F08A84CCEF2FF00B50D8B4D2EFEE
:105F9E002FF0D4EF2FF0E8EF2FF012500E240C6EEE
:105FAE00000E0F200D6E090E0C24F66E6F0E0D20D6
:105FBE00F76E0800F5CF09F0135080EC29F0FDEFD5
:105FCE002FF012500E240C6E000E0F200D6E090EC7
:105FDE000C24F66E6F0E0D20F76E0800F550FF0ABA
:105FEE00096E135080EC29F0FDEF2FF0112A122AC2
:105FFE00070E126405EF30F007EF30F0B0EF2FF020
:10600E0009EF30F0080E5F2612000F6E000E116EB3
:10601E000A0E0F18D8A416EF30F018EF30F01FEF5D
:10602E0030F0000E5F6E5E2AADEF30F0ADEF30F067
:10603E003F0E5F6425EF30F027EF30F02EEF30F09B
:10604E00010E116E5F50C00F0E6E32EF30F05FC05A
:10605E000EF032EF30F0200E0F5E000E106E020EBC
:10606E0010643CEF30F03EEF30F042EF30F0ABEF2B
:10607E0030F0ABEF30F03F0E0E6448EF30F04AEFE9
:10608E0030F05EEF30F0400E0E5E010E116E8A940F
:10609E000E504009096E115080EC29F05E50B8097F
:1060AE00096E115080EC29F08A845EEF30F00B50AF
:1060BE00D8B464EF30F066EF30F082EF30F00F506E
:1060CE00030D090E0C6E7B0E0D6EF3500C26F45064
:1060DE000D221050010DF3500C26F4500D220CC061
:1060EE00F6FF0DC0F7FF0800F5CF09F0115080EC58
:1060FE0029F09FEF30F00F50030D090E0C6E7B0E42
:10610E000D6EF3500C26F4500D221050010DF3506D
:10611E000C26F4500D220CC0F6FF0DC0F7FF080040
:10612E00F550FF0A096E115080EC29F09FEF30F008
:10613E000E2A102A020E1064A7EF30F0A9EF30F0ED
:10614E0042EF30F0ABEF30F0050E5F2612001D6E01
:10615E004F0E146E010E156E000E1C6E000E186E94
:10616E00000E196E1DBEBEEF30F0C0EF30F0D6EF50
:10617E0030F00EC00BF01D5070EC2AF01D50800A4E
:10618E00080FD8A0CDEF30F0CFEF30F0E0EF30F0C9
:10619E001D50890F196EE0EF30F0E0EF30F00EC0B9
:1061AE000BF0000E70EC2AF01D500008186EE0EF98
:1061BE0030F03F0E5F64E6EF30F0E8EF30F0EFEFD7
:1061CE0030F0010E1C6E5F50C00F1A6EF3EF30F000
:1061DE005FC01AF0F3EF30F01450080DF3CF16F045
:1061EE00F4CF17F018C01BF04EEF31F03F0E1A64CB
:1061FE0003EF31F005EF31F019EF31F0400E1A5E7A
:10620E00010E1C6E8A941A504009096E1C5080ECC7
:10621E0029F05E50B809096E1C5080EC29F08A8472
:10622E0019EF31F01550D8B41FEF31F021EF31F0E6
:10623E0035EF31F01B5016240F6E000E1720106E26
:10624E00090E0F24F66E6F0E1020F76E0800F5CFB4
:10625E0009F01C5080EC29F04AEF31F01B50162447
:10626E000F6E000E1720106E090E0F24F66E6F0EB5
:10627E001020F76E0800F550FF0A096E1C5080ECD6
:10628E0029F04AEF31F01A2A1B2A4EEF31F019503D
:10629E000F6E106A0F1E101E0F4A102A080E0F26C0
:1062AE00000E10221B50116E126A0F50115C12500C
:1062BE00800A136E1050800A1358D8A069EF31F07F
:1062CE006BEF31F0FDEF30F06DEF31F01850192417
:1062DE000008080F5F261200000E126E08BE7CEF3B
:1062EE0031F07AEF31F090EF31F0081E071E061EE6
:1062FE00051E041E031E021E016C000E0222032246
:10630E0004220522062207220822010E126E90EFA9
:10631E0031F010BE97EF31F095EF31F0A9EF31F07B
:10632E00101E0F1E0E1E0D1E0C1E0B1E0A1E096CBD
:10633E00000E0A220B220C220D220E220F221022F8
:10634E00A9EF31F009500A100B100C100D100E10A1
:10635E000F101010D8B4B6EF31F0B8EF31F00CEFDB
:10636E0032F0010E116EC8EF31F0D89009360A36B0
:10637E000B360C360D360E360F361036112AC8EF88
:10638E0031F010AECDEF31F0CFEF31F0BCEF31F098
:10639E00D3EF31F0D3EF31F00950015C0A500258BF
:1063AE000B5003580C5004580D5005580E500658FB
:1063BE000F50075810500858D8A0E8EF31F0EAEF08
:1063CE0031F0FCEF31F00950015E0A50025A0B50C9
:1063DE00035A0C50045A0D50055A0E50065A0F50BF
:1063EE00075A1050085AFCEF31F0D89010320F3285
:1063FE000E320D320C320B320A320932112ED3EF1D
:10640E0031F00CEF32F00CEF32F01250D8B412EF34
:10641E0032F014EF32F026EF32F0081E071E061E81
:10642E00051E041E031E021E016C000E0222032214
:10643E000422052206220722082226EF32F001C08E
:10644E0001F002C002F003C003F004C004F005C066
:10645E0005F006C006F007C007F008C008F038EFD8
:10646E0032F01200000E126E10BE42EF32F040EF0C
:10647E0032F056EF32F0101E0F1E0E1E0D1E0C1EA9
:10648E000B1E0A1E096C000E0A220B220C220D2274
:10649E000E220F221022010E126E56EF32F008BE9F
:1064AE005DEF32F05BEF32F071EF32F0081E071E37
:1064BE00061E051E041E031E021E016C000E022285
:1064CE00032204220522062207220822010E121A96
:1064DE0071EF32F020EE13F0070EDE6AE806FDE2F1
:1064EE0009500A100B100C100D100E100F1010107A
:1064FE00D8B484EF32F086EF32F0E4EF32F0010ED2
:10650E00116E96EF32F0D89009360A360B360C36ED
:10651E000D360E360F361036112A96EF32F010AEBB
:10652E009BEF32F09DEF32F08AEF32F0A1EF32F0B6
:10653E00A1EF32F0D89013361436153616361736BC
:10654E00183619361A360950015C0A5002580B508B
:10655E0003580C5004580D5005580E5006580F5045
:10656E00075810500858D8A0BFEF32F0C1EF32F0E4
:10657E00D4EF32F00950015E0A50025A0B50035A02
:10658E000C50045A0D50055A0E50065A0F50075A09
:10659E001050085A1380D4EF32F0D89010320F32C8
:1065AE000E320D320C320B320A320932112EA1EF9D
:1065BE0032F0E4EF32F0E4EF32F01250D8B4EAEFFA
:1065CE0032F0ECEF32F0FEEF32F01A1E191E181EEA
:1065DE00171E161E151E141E136C000E14221522E5
:1065EE0016221722182219221A22FEEF32F013C099
:1065FE0001F014C002F015C003F016C004F017C06D
:10660E0005F018C006F019C007F01AC008F010EF18
:10661E0033F0120042C0D9FF43C0DAFFDECFF6FFDF
:10662E00DDCFF7FF0800F550250AD8A421EF33F08F
:10663E0023EF33F0D7EF33F042C0D9FF43C0DAFF78
:10664E00DE2A000EDD22000E0001636F000E626F67
:10665E0062C066F063C067F06469656942C0D9FFC5
:10666E0043C0DAFFDECFF6FFDDCFF7FF0800F550AF
:10667E00640AD8B445EF33F047EF33F05BEF33F0F5
:10668E0042C0D9FF43C0DAFFDECFF6FFDDCFF7FF02
:10669E000800F550690AD8A457EF33F059EF33F0DC
:1066AE009DEF33F05BEF33F042C0D9FF43C0DAFF0A
:1066BE00DE2A000EDD2244C0D9FF45C0DAFFDFCF4F
:1066CE0046F0020EDE26DFCF47F0000EDD2246C07A
:1066DE00D9FF47C0DAFFDECF48F0DDCF49F0000E1C
:1066EE0049BEFF0E4A6E4B6E4C6E4D6E4E6E4F6E29
:1066FE0040C01CF041C01DF048C01EF049C01FF044
:10670E004AC020F04BC021F04CC022F04DC023F007
:10671E004EC024F04FC025F0F7EC33F01CC040F013
:10672E001DC041F0F6EF33F0F6EF33F042C0D9FF63
:10673E0043C0DAFFDECFF6FFDDCFF7FF0800F550DE
:10674E00250AD8A4ADEF33F0AFEF33F0C8EF33F036
:10675E0042C0D9FF43C0DAFFDE2A000EDD22000E52
:10676E00026E250E016E40C003F041C004F020EC15
:10677E002EF0000E416E010E406EF6EF33F0F6EF86
:10678E0033F042C0D9FF43C0DAFFDE2A000EDD220D
:10679E00000E416E000E406EF6EF33F0F6EF33F062
:1067AE0042C0D9FF43C0DAFFDECFF6FFDDCFF7FFE1
:1067BE000800F550016E026A40C003F041C004F0BB
:1067CE0020EC2EF042C0D9FF43C0DAFFDE2A000EC5
:1067DE00DD22000E416E010E406EF6EF33F0120018
:1067EE001EC036F01FC037F020C038F021C039F07F
:1067FE0022C03AF023C03BF024C03CF025C03DF04F
:10680E003DBE0CEF34F00FEF34F0010E10EF34F00C
:10681E00000E346E356A34503510D8B419EF34F09A
:10682E001BEF34F02DEF34F03D1E3C1E3B1E3A1E86
:10683E00391E381E371E366C000E3722382239228A
:10684E003A223B223C223D222DEF34F0000165BF5F
:10685E0033EF34F035EF34F038EF34F0669338EF31
:10686E0034F065BF45EF34F0655106E16405D8B0EC
:10687E0043EF34F045EF34F04BEF34F0000E316E51
:10688E00010E306E4FEF34F064C030F065C031F061
:10689E0062C032F063C033F034503510D8A45AEFD2
:1068AE0034F05CEF34F065EF34F066A561EF34F050
:1068BE0063EF34F06AEF34F065EF34F03206D8A0AF
:1068CE0033066AEF34F0000E3F6E1F0E3E6E6C0EF6
:1068DE003E24D96E000E3F20DA6E000EDF6EF6EF0C
:1068EE0034F03E06D8A03F066C0E3E24D96E000E44
:1068FE003F20DA6E36C001F037C002F038C003F028
:10690E0039C004F03AC005F03BC006F03CC007F0B9
:10691E003DC008F00A0E096E000E0A6E000E0B6ED8
:10692E00000E0C6E000E0D6E000E0E6E000E0F6E33
:10693E00000E106E73EC31F001C026F002C027F08D
:10694E0003C028F004C029F005C02AF006C02BF0C1
:10695E0007C02CF008C02DF026C013F028C014F08C
:10696E009DEC29F01350300FDF6E3006D8A03106A3
:10697E003206D8A0330636C001F037C002F038C058
:10698E0003F039C004F03AC005F03BC006F03CC03D
:10699E0007F03DC008F00A0E096E000E0A6E000EDA
:1069AE000B6E000E0C6E000E0D6E000E0E6E000EB7
:1069BE000F6E000E106E39EC32F001C036F002C0D0
:1069CE0037F003C038F004C039F005C03AF006C005
:1069DE003BF007C03CF008C03DF0F6EF34F03FBE90
:1069EE0001EF35F03F5008E13E04D8A001EF35F03D
:1069FE0003EF35F03AEF35F03650371038103910C6
:106A0E003A103B103C103D10D8A410EF35F012EFA9
:106A1E0035F078EF34F031BE1FEF35F0315006E12E
:106A2E003004D8B01DEF35F01FEF35F078EF34F0AD
:106A3E0033BE2AEF35F0335008E13204D8A02AEFE6
:106A4E0035F02CEF35F03AEF35F0000166B332EF4A
:106A5E0035F034EF35F078EF34F03AEF35F03AEFB9
:106A6E0035F03AEF35F034503510D8A441EF35F00B
:106A7E0043EF35F04DEF35F0000166A549EF35F0E7
:106A8E004BEF35F06FEF35F04DEF35F03E06D8A0F9
:106A9E003F0634503510D8A457EF35F059EF35F086
:106AAE005FEF35F0000E2F6E2B0E2E6E65EF35F06C
:106ABE00000E2F6E2D0E2E6E65EF35F06C0E3E24F1
:106ACE00D96E000E3F20DA6E2EC0DFFF6FEF35F06D
:106ADE001CC011F01DC012F06C0E3E24136E000E81
:106AEE003F20146E32C015F033C016F0D9EC2CF0E6
:106AFE0011C01CF012C01DF085EF35F012001F0EF4
:106B0E000001BD6F000EBE6F000EBF6F010EBF65A0
:106B1E0093EF35F095EF35F099EF35F0CAEF35F08C
:106B2E00CAEF35F040EC29F00001BF51020DB90E4D
:106B3E00F324D96E000EF420DA6E23C0DEFF24C0DB
:106B4E00DDFFBF51020DB90EF324D96E000EF420F5
:106B5E00DA6EBF2900089E6F060E9F6FD8909E3783
:106B6E009F2FB5EF35F09E51800F00087F0FDF6E1F
:106B7E00BF2B010EBF65C6EF35F0C8EF35F099EFAC
:106B8E0035F0CAEF35F0000EB66F000EB86F000E7E
:106B9E00B76FF40E0B6E7B0E0C6EB1EC2DF0070E74
:106BAE000B6E180E70EC2AF0F40E146E7F0E156E2E
:106BBE00010E166E010E176ECBEC2BF076EF37F042
:106BCE0080A0ECEF35F0EEEF35F0F1EF35F0BE2BA7
:106BDE00F1EF35F080A2F6EF35F0F8EF35F0FBEF80
:106BEE0035F0BE07FBEF35F0BE51800A7D0FD8A001
:106BFE0003EF36F005EF36F009EF36F0020EBE6FFA
:106C0E0009EF36F0BE51800A820FD8B011EF36F080
:106C1E0013EF36F017EF36F0FE0EBE6F17EF36F0AD
:106C2E00BE51BD5F100EBD611FEF36F021EF36F085
:106C3E0025EF36F0100EBD6F31EF36F02F0EBD651D
:106C4E002BEF36F02DEF36F031EF36F02F0EBD6F05
:106C5E0031EF36F0000EBF6F010EBF6539EF36F023
:106C6E003BEF36F03FEF36F079EF36F079EF36F056
:106C7E00BF51020DB90EF324D96E000EF420DA6E58
:106C8E00DF50800A850FD8A04FEF36F051EF36F067
:106C9E005DEF36F0BF51020DB90EF324D96E000E22
:106CAE00F420DA6EFE0EDF266EEF36F040EC29F0A1
:106CBE000001BF51020DB90EF324D96E000EF4205F
:106CCE00DA6E23C0DEFF24C0DDFF6EEF36F0BF2B81
:106CDE00010EBF6575EF36F077EF36F03FEF36F009
:106CEE0079EF36F0000EBF6F010EBF6581EF36F003
:106CFE0083EF36F087EF36F001EF37F001EF37F024
:106D0E00F00E9E6FFF0E9F6FBF51020DB90EF32452
:106D1E00D96E000EF420DA6EDF50A06FA16BA0BF0B
:106D2E00A1079E51A0279F51A123A1BFAAEF36F024
:106D3E00A15107E1080EA05DD8B0A8EF36F0AAEF7A
:106D4E0036F0F6EF36F0F00E9E6FFF0E9F6FBF51CE
:106D5E00020DB90EF324D96E000EF420DA6EDF5058
:106D6E00A06FA16BA0BFA1079E51A0279F51A12389
:106D7E00A1AFCDEF36F0F90EA05DFF0EA159D8A050
:106D8E00CBEF36F0CDEF36F0F6EF36F0BF51020D09
:106D9E00010EF326000EF422B90EF324D96E000E66
:106DAE00F420DA6EDF509E6F9F6BBDC001F0026A59
:106DBE00000E046E080E036E00EC2FF000019E51C3
:106DCE00011807E19F510218D8A4F0EF36F0F2EF48
:106DDE0036F0F6EF36F0010EB66FF6EF36F0BF2B4B
:106DEE00010EBF65FDEF36F0FFEF36F087EF36F0A0
:106DFE0001EF37F07CEC2CF0A20E586E000E596E9F
:106E0E00FA0E5A6E7F0E5B6EB7C05CF0B8C05DF0C6
:106E1E000EEC2AF0070E0B6E400E70EC2AF0A20E4E
:106E2E00146E000E156E010E166E010E176ECBEC63
:106E3E002BF0000E0001BF6F010EBF6529EF37F07A
:106E4E002BEF37F02FEF37F054EF37F054EF37F0DA
:106E5E00BF51020D010EF326000EF422B90EF324DB
:106E6E00D96E000EF420DA6EDF500E6EBF51020D99
:106E7E00B90EF324D96E000EF420DA6EDF50AEECAC
:106E8E0030F00001BF2B010EBF6550EF37F052EF0F
:106E9E0037F02FEF37F054EF37F0BDC00BF0010E87
:106EAE000C6E100E44EC2DF0B7C001F0B8C002F01D
:106EBE00000E046E0D0E036EA8EC2AF00001B75101
:106ECE000124686FB8510220696FB74BB82B010EC1
:106EDE00026EF40E016EE4EC2AF076EF37F000014C
:106EEE00B651D8B47DEF37F07FEF37F0E7EF35F0DE
:106EFE0081EF37F081EF37F0120000000000000044
:106F0E000000000000000000000000000000000073
:106F1E000000000000000000000000000000000063
:106F2E000000000000000000000000000000000053
:106F3E000000000000000000000000000000000043
:106F4E000000000000000000000000000000000033
:106F5E000000000000000000000000000000000023
:106F6E000000000000000000000000000000000013
:106F7E000000000000000000000000000000000003
:106F8E0000000000000000000000000000000000F3
:106F9E0000000000000000000000000000000000E3
:106FAE0000000000000000000000000000000000D3
:106FBE0000000000000000000000000000000000C3
:106FCE0000000000000000000000000000000000B3
:106FDE0000000000000000000000000000000000A3
:106FEE000000000000000000000000000000000093
:106FFE000000000000000000000000000000000083
:10700E0000000000065F5F06000000000707000793
:10701E00070000147F7F147F7F1400242E6B6B3AC1
:10702E00120000466630180C666200307A4F5D37EB
:10703E007A48000407030000000000001C3E634174
:10704E000000000041633E1C000000082A3E1C1C8C
:10705E003E2A0808083E3E080800000080E0600056
:10706E000000000808080808080000000060600022
:10707E000000006030180C060301003E7F71594D70
:10708E007F3E0040427F7F40400000627359496F4F
:10709E00660000226349497F360000181C16537F94
:1070AE007F5000276745457D3900003C7E4B49796E
:1070BE00300000030371790F070000367F49497FC6
:1070CE00360000064F49693F1E000000006666004C
:1070DE000000000080E66600000000081C366341D8
:1070EE000000002424242424240000004163361CC4
:1070FE00080000020351590F0600003E7F415D5DFE
:10710E001F1E007C7E13137E7C0000417F7F494949
:10711E007F36001C3E634141632200417F7F416305
:10712E003E1C00417F7F495D416300417F7F491DC9
:10713E000103001C3E6341517372007F7F08087F7C
:10714E007F000000417F7F41000000307040417F92
:10715E003F0100417F7F081C776300417F7F4140E4
:10716E006070007F7F0E1C0E7F7F007F7F060C18E5
:10717E007F7F001C3E6341633E1C00417F7F4909B7
:10718E000F06001E3F21717F5E0000417F7F0919AF
:10719E007F6600266F4D597332000003417F7F4199
:1071AE000300007F7F40407F7F00001F3F60603FF5
:1071BE001F00007F7F3018307F7F0043673C183CF4
:1071CE00674300074F78784F070000476371594DAA
:1071DE00677300007F7F41410000000103060C1819
:1071EE003060000041417F7F000000080C0603065E
:1071FE000C0800808080808080808000000307045F
:10720E00000000207454543C784000417F3F4848B1
:10721E00783000387C44446C280000307848493F70
:10722E007F4000387C54545C180000487E7F490330
:10723E0002000098BCA4A4F87C0400417F7F0804DF
:10724E007C780000447D7D4000000060E08080FD81
:10725E007D0000417F7F10386C440000417F7F40ED
:10726E000000007C7C18381C7C78007C7C04047C3C
:10727E00780000387C44447C38000084FCF8A42458
:10728E003C1800183C24A4F8FC8400447C784C0480
:10729E001C1800485C54547424000000043E7F44C3
:1072AE002400003C7C40403C7C40001C3C60603C28
:1072BE001C00003C7C7038707C3C00446C381038EC
:1072CE006C44009CBCA0A0FC7C00004C64745C4C24
:1072DE0064000008083E7741410000000000777707
:1072EE000000004141773E0808000002030103023E
:1072FE0003010070784C464C7870000E9F91B1FBE4
:10730E004A00003A7A40407A7A4000387C54555D03
:10731E0019000002237555557D7B42217554547D0D
:10732E00794000217555547C784000207457577C65
:10733E00784000183CA4A4E4400000023B7D555563
:10734E005D1B02397D54545D190000397D55545C26
:10735E0018000001457C7C410100000203457D7D43
:10736E0043020001457D7C40000000797D16121617
:10737E007D790070782B2B78700000447C7C5555FD
:10738E00450000207454547C7C54547C7E0B097F41
:10739E007F4900327B49497B320000327A48487A75
:1073AE00320000327A4A48783000003A7B41417B05
:1073BE007A40003A7A4240787840009ABAA0A0FA11
:1073CE007A000001193C66663C19013D7D40407D06
:1073DE003D0000183C24E7E7242400687E7F4943E3
:1073EE006620002B2FFCFC2F2B0000FFFF09092F1E
:1073FE00F6F8A040C088FE7F090302207454557D24
:10740E0079400000447D7D410000003078484A7A82
:10741E00320000387840427A7A40007A7A0A0A7A44
:10742E007000007D7D19317D7D000000262F292FF3
:10743E002F280000262F292F26000030784D45607A
:10744E002000003838080808080000080808083826
:10745E003800004F6F3018CCEEBB914F6F30186C68
:10746E0076FBF90000007B7B000000081C3622082A
:10747E001C362222361C0822361C08AA005500AAE9
:10748E00005500AA55AA55AA55AA55DDFFAA77DDC3
:10749E00AAFF77000000FFFF000000101010FFFF92
:1074AE00000000141414FFFF0000001010FFFF0076
:1074BE00FFFF001010F0F010F0F000141414FCFC9C
:1074CE000000001414F7F700FFFF000000FFFF009C
:1074DE00FFFF001414F4F404FCFC0014141717102E
:1074EE001F1F0010101F1F101F1F001414141F1F2A
:1074FE00000000101010F0F00000000000001F1F30
:10750E001010101010101F1F101010101010F0F08F
:10751E00101010000000FFFF1010101010101010AF
:10752E00101010101010FFFF101010000000FFFFC1
:10753E001414140000FFFF00FFFF1000001F1F10A7
:10754E001717140000FCFC04F4F41414141717108D
:10755E001717141414F4F404F4F4140000FFFF00CD
:10756E00F7F71414141414141414141414F7F70055
:10757E00F7F714141414171714141410101F1F10E7
:10758E001F1F10141414F4F41414141010F0F0102F
:10759E00F0F01000001F1F101F1F100000001F1F13
:1075AE00141414000000FCFC1414140000F0F0106D
:1075BE00F0F0101010FFFF10FFFF10141414FFFF57
:1075CE001414141010101F1F000000000000F0F023
:1075DE00101010FFFFFFFFFFFFFFFFF0F0F0F0F0C5
:1075EE00F0F0F0FFFFFFFF0000000000000000FFC2
:1075FE00FFFFFF0F0F0F0F0F0F0F0F387C446C386C
:10760E006C4400FCFE2A2A3E1400007E7E02020616
:10761E00060000027E7E027E7E020063775D496375
:10762E00630000387C447C3C04040080FE7E2020F5
:10763E003E1E000406027E7C06020099BDE7E7BDF1
:10764E009900001C3E6B496B3E1C004C7E7301730F
:10765E007E4C0030784A4F7D390000183C243C3C6B
:10766E00243C1898FC643C3E273D180000000000A6
:10767E0000000000000000000000000000000000FC
:10768E0000000000000000000000000000000000EC
:10769E0000000000000000000000000000000000DC
:1076AE0000000000000000000000000000000000CC
:1076BE0000000000000000000000000000000000BC
:1076CE0000000000000000000000000000000000AC
:1076DE00000000000000000000000000000000009C
:1076EE00000000000000000000000000000000008C
:1076FE00000000000000000000000000000000007C
:10770E00000000000000000000000000000000006B
:10771E00000000000000000000000000000000005B
:10772E00000000000000000000000000000000004B
:10773E00000000000000000000000000000000003B
:10774E00000000000000000000000000000000002B
:10775E00000000000000000000000000000000001B
:10776E00000000000000000000000000000000000B
:10777E0000000000000000000000000000000000FB
:10778E0000000000000000000000000000000000EB
:10779E0000000000000000000000000000000000DB
:1077AE0000000000000000000000000000000000CB
:1077BE0000000000000000000000000000000000BB
:1077CE0000000000000000000000000000000000AB
:1077DE00000000000000000000000000000000009B
:1077EE00000000000000000000000000000000008B
:1077FE00000000000000000000000000000000007B
:10780E00000000000000000000000000C0404040EA
:10781E00C0C0404040C00040E0E00000000000005A
:10782E0000000000602000000000000000000000CA
:10783E0000000000000000000000000040E0E0003A
:10784E00000000000000000000000000000000002A
:10785E00000000000000000000000000000000001A
:10786E00000000000000000000000000000000000A
:10787E0000000000000000000000000000000000FA
:10788E0000000000000000000000000000000000EA
:10789E00FFFF000000000000FFFF000202FEF800E4
:1078AE0000F8941212161C0000F8CC020202069C7C
:1078BE0078000404FE040202028EFC0000FFFF00AA
:1078CE000202FEF80000CC662212FEFC0004FEFE50
:1078DE00000202FEFC0000F8941212161C000000BA
:1078EE00000000000000000000000000000000008A
:1078FE00000000000000000000000000000000007A
:10790E000000000000000000000000000000020265
:10791E00030302020000000203030200020303023B
:10792E000000010303030100000001030202020133
:10793E00000020303F210202020100000203030278
:10794E00000203030200030202000303000203030A
:10795E000200020303020000010303030100000002
:10796E000000000000000000000000000000000009
:10797E0000000000000000000000000000000000F9
:10798E0000000000000000000000000000000000E9
:10799E0000000000000000000000000000000000D9
:1079AE0000000000000000000000000000000000C9
:1079BE0000000000000000000000000000000000B9
:1079CE0000000000000000000000000000000000A9
:1079DE000000000000000000000000000000000099
:1079EE000000000000000000000000000000000089
:1079FE000000000000000000000000000000000079
:107A0E000000000000000000000000000000000068
:107A1E000000000000000000000000000000000058
:107A2E000000000000000000000000000000000048
:107A3E000000000000000000000000000000000038
:107A4E000000000000000000000000000000000028
:107A5E000000000000000000000000000000000018
:107A6E000000000000000000000000000000000008
:107A7E0000000000000000000000000000000000F8
:107A8E0000000000000000000000000000000000E8
:107A9E0000000000000000000000000000000000D8
:107AAE0000000000000000000000000000000000C8
:107ABE0000000000000000000000000000000000B8
:107ACE0000000000000000000000000000000000A8
:107ADE000000000000000000000000000000000098
:107AEE000000000000000000000000000000000088
:107AFE000000000000000000000000000000005C1C
:107B0E00000C000C7C287C7C447C241048285408F3
:107B1E00000C003844004438002010081038108043
:107B2E004000101010004000201008384438007C2F
:107B3E00006454484454281C107C4C54243854205F
:107B4E0004740C285428085438005000805000103B
:107B5E002844282828442810045408384C5C7814EB
:107B6E00787C54283844447C44387C54447C140437
:107B7E003844347C107C007C0020403C7C106C7CB3
:107B8E0040407C087C7C047C7C447C7C140838441B
:107B9E00787C1468485424047C047C407C3C403C33
:107BAE007C207C6C106C1C601C64544C7C44000863
:107BBE001020447C00080408808080040800607057
:107BCE00783C3C1E0E0318183C3C1E1E1C0C18184C
:107BDE003C3C3C3C18180C1C1E1E3C3C180E060E61
:107BEE001E3C3C78706000039FFFEFCF8301216144
:107BFE0020000381C1E17130F8180C0800C10307A1
:107C0E009F9F3FFFFFFFCF000000000003C78E1CA9
:107C1E001E1E18100000000000F8ECF97F1F0080F7
:107C2E00E3731B191B1B000080C17F3C00181E074D
:107C3E000020303818CCCC4303070FFFFFFFFFFFA7
:107C4E00FF07C36120000103C7626060000406875E
:107C5E00FCF98180860E0C0000000301103070606C
:107C6E0008787DFCFC9FF0FCFFFFFFFFFFFEF4F0A9
:107C7E00F0F0F2FFFFF0F0F0F0F0F0F0F8F7F7F0C0
:107C8E00FFFFFCFFFFFFFFFEFEFCFCF0F0F0F9F83B
:107C9E00F0F0F0F0F1FEF8F0F8FFFFF0F0F8F8F881
:107CAE00FCFCFCF8F8FCFEFFFFFEFCF8F0F1F1F333
:107CBE00F3F8FCFCF8F0F0F8FCFCFEFFFFFFFFFF12
:107CCE00FFFFFFFCF8F8FCFCF4F4FEFEFCFCFEFFEC
:107CDE00FFFFFFFFFBF9F8FFF6F6FCFCFCFEFFFED4
:107CEE00F8F8FCFFFFFF000000000000000000009D
:107CFE000000000000000000000000000000000076
:107D0E000000000000000000000000000000000065
:107D1E000000000000000000000000000000000055
:107D2E000000000000000000000000000000000045
:107D3E000000000000000000000000000000000035
:107D4E000000000000000000000000000000000025
:107D5E000000000000000000000000000000000015
:107D6E000000000000000000000000000000000005
:107D7E0000000000000000000000000000000000F5
:107D8E0000000000000000000000000000000000E5
:107D9E0000000000000000000000000000000000D5
:107DAE0000000000000000000000000000000000C5
:107DBE0000000000000000000000000000000000B5
:107DCE0000000000000000000000000000000000A5
:107DDE000000000000000000000000000000000095
:107DEE000000000000000000000000000000000085
:107DFE000000000000000000000000000000000075
:107E0E000000000000000000000000000000000064
:107E1E000000000000000000000000000000000054
:107E2E000000000000000000000000000000000044
:107E3E000000000000000000000000000000000034
:107E4E000000000000000000000000000000000024
:107E5E000000000000000000000000000000000014
:107E6E000000000000000000000000000000000004
:107E7E0000000000000000000000000000000000F4
:107E8E0000000000000000000000000000000000E4
:107E9E0000000000000000000000000000000000D4
:107EAE0000000000000000000000000000000000C4
:107EBE0000000000000000000000000000000000B4
:107ECE0000000000000000000000000000000000A4
:107EDE000000000000000000000000000000000094
:107EEE000000000000004F9F3F3F1F0F0F0F8F6FCE
:107EFE001F1F0F0F0FCFEF6F4F0F1F1F0F0F8F3F54
:107F0E007F8F0F0F0F1F1F0F0F8F8F0F2FEFFFFF83
:107F1E00FFFFFFFFFFFFFFFFFFFF3F3F4F6F6F6F43
:107F2E004F0F0F0F0F0F8FFF3F1F1FCFCFEFCF0F33
:107F3E000F0F0F1F9FCFCFFF6F6F0F0FCFCF6F3F63
:107F4E001F0F0F8FCF0F0F0F0F3FFFFFFFFFFFFF13
:107F5E007F3F0F0F0F0F2F0F0F8FCF8F8F8F9F3FE3
:107F6E006FCF8FCFEFEF0000C0F0F49CFCFC7D785C
:107F7E00086070301001030000000C0E868081F93D
:107F8E00FC87060400606062C70301002061C3071E
:107F9E00FFFFFFFFFFFF0F070343CCCC1838302045
:107FAE0000071E18003C7FC18000001B1B191B73AD
:107FBE00E380001F7FF9ECF8000000000010181E8F
:107FCE001E1C8EC7030000000000CFFFFFFF3F9F67
:107FDE00900000C100080C18F83071E1C181030057
:107FEE002061210183CF53434F5245003D2564004C
:017FFE000082
:020000040020DA
:08000000FFFFFFFFFFFFFFFF00
:020000040030CA
:0E000000000C191EFF8381FF0FC00FE00F40A0
:00000001FF
