:020000040000FA
:040000006BEF28F08A
:1050D400120000EEA7F0380EEE6AE806FDE1000EBD
:1050E400F86E0001B0EF28F07F0E256E83EC2DF0F2
:1050F4001950030B020F266E25C023F026C024F09E
:1051040084EF28F0120001500302F3CF05F0F4CF2E
:1051140006F001500402F350062602500302F35035
:10512400062605C001F006C002F099EF28F012002F
:105134000F0EC16E000EC26E000E936E000E946EC2
:10514400000E956E000E966E9268000E816E000E33
:10515400826E000E836E000E846E12009AEC28F0AC
:10516400010E38EC2AF0000E0001B46F000EB36F8C
:10517400000EB26F000EB16F000EB06F000EAF6F75
:10518400C4EF28F0B3EC31F0C4EF28F0C4EF28F0FA
:1051940000EF00F0026E0250D8B4D3EF28F0D5EF40
:1051A40028F0D9EF28F08A808A92DDEF28F08A92DD
:1051B4008A82DDEF28F0000E956E8A9601C08CFF7E
:1051C4008A8800D08A9800D08A908A92120014BEED
:1051D400F6EF28F0145006E11304D8B0F4EF28F0E9
:1051E400F6EF28F004EF29F013C015F014C016F000
:1051F400151E161E154A162A15C013F016C014F0F3
:105204000AEF29F013C013F014C014F00AEF29F0C8
:105214001200000E106E000E0F6E1EEF29F00EC06D
:1052240001F0026A0CC003F00DC004F014EC2DF080
:105234000F4A102A1EEF29F00F500A24D96E10507D
:105244000B20DA6EDF500E6E0E50D8A42CEF29F02E
:105254002EEF29F011EF29F030EF29F0120001C0F0
:1052640005F002C006F03BEF29F0014A022A3BEFA9
:1052740029F001C0D9FF02C0DAFFDF50D8A445EFFE
:1052840029F047EF29F037EF29F049EF29F005C05D
:1052940003F006C004F0031E041E034A042A01504E
:1052A4000324016E02500420026E59EF29F012000B
:1052B4005C0E0001626F000E636F58C064F059C049
:1052C40065F0000E676F000E666F000E696F000ECA
:1052D400686F640E506E000E516E5AC052F05BC07F
:1052E40053F0620E546E000E556E89EC29F050C0D6
:1052F40060F051C061F0000166515824D96E6751C5
:105304005920DA6E000EDF6E88EF29F0120052C0C9
:1053140056F053C057F0000E0001A86F000EA76F9F
:10532400A9EF29F050C040F051C041F0560E426E32
:10533400000E436E54C044F055C045F05EEC33F0AB
:1053440040500001A7274150A823A9EF29F056C0D7
:10535400F6FF57C0F7FF0800F5500009D8A4B5EFD1
:1053640029F0B7EF29F094EF29F0A7C050F0A8C0B6
:1053740051F01200056E000E046E800E0560C5EF3C
:1053840029F0C7EF29F0F3EF29F0070E0364CDEFFE
:1053940029F0CFEF29F0D3EF29F0F3EF29F0F3EF61
:1053A40029F005C0B6F003C0B5F03F0E0564DDEF8B
:1053B40029F0DFEF29F0E5EF29F0400E055E010E3C
:1053C400046EE5EF29F08A9405504009016E0450FB
:1053D400CCEC28F00350B809016E0450CCEC28F052
:1053E4008A841200000E056E000E046E26EF2AF069
:1053F400000E076E000E066E07BE0AEF2AF0075075
:1054040009E10A0E065CD8A00AEF2AF00CEF2AF094
:1054140010EF2AF022EF2AF022EF2AF0064A072A98
:1054240007BE1EEF2AF0075009E10A0E065CD8A059
:105434001EEF2AF020EF2AF010EF2AF022EF2AF0D4
:10544400044A052A26EF2AF00150045C0550800A1C
:10545400036E0250800A0358D8A033EF2AF035EFC8
:105464002AF0FAEF29F037EF2AF01200066E000E48
:10547400836E8A9A210EE82EFED700F08A8A8A98D3
:105484008A908A928A9400D0C00E016E000ECCECF1
:1054940028F0C00E016E010ECCEC28F0400E016E17
:1054A400000ECCEC28F0400E016E010ECCEC28F07E
:1054B400B80E016E000ECCEC28F0B80E016E010E91
:1054C400CCEC28F00604D8A46AEF2AF06CEF2AF09A
:1054D40078EF2AF03F0E016E000ECCEC28F03F0E60
:1054E400016E010ECCEC28F084EF2AF03E0E016E22
:1054F400000ECCEC28F03E0E016E010ECCEC28F030
:1055040084EF2AF0000E81EC2BF01200000E81ECE7
:105514002BF0000E036E080EBCEC29F0EB0E0C6EA3
:105524007F0E0D6E010E0E6E010E0F6E2CEC2BF025
:10553400020E036E100EBCEC29F08A0E0C6E7F0E68
:105544000D6E000E0E6E010E0F6E2CEC2BF0040E81
:10555400036E100EBCEC29F0AC0E0C6E7F0E0D6EBB
:10556400000E0E6E010E0F6E2CEC2BF0050E036E6A
:10557400100EBCEC29F09B0E0C6E7F0E0D6E000E0F
:105584000E6E010E0F6E2CEC2BF0C9EF2AF080A0EA
:10559400CEEF2AF0D0EF2AF0C9EF2AF0D2EF2AF0AA
:1055A400010E026EF40E016EF4EC29F0120020EEEE
:1055B40011F0070EDE6AE806FDE2E1EF2AF001A031
:1055C400E6EF2AF0E8EF2AF0FAEF2AF00950112664
:1055D4000A5012220B5013220C5014220D50152283
:1055E4000E5016220F50172210501822FAEF2AF0EC
:1055F400D89009360A360B360C360D360E360F3671
:105604001036D8900832073206320532043203329B
:10561400023201320150021003100410051006106A
:1056240007100810D8A419EF2BF01BEF2BF0E1EFB3
:105634002AF011C001F012C002F013C003F014C02C
:1056440004F015C005F016C006F017C007F018C026
:1056540008F0120066EF2BF00E50D8B434EF2BF0A4
:1056640036EF2BF04CEF2BF00FC003F00CC0F6FF1D
:105674000DC0F7FFF86A070EF76403D00800F55071
:1056840005D0F6CFE1FFF7CFE2FFE750E5EC2EF0CF
:1056940062EF2BF00FC003F00CC0F6FF0DC0F7FF54
:1056A400F86A070EF76403D00800F55005D0F6CF6A
:1056B400E1FFF7CFE2FFE7507FEC2FF062EF2BF032
:1056C4000C4A0D2A66EF2BF00CC0F6FF0DC0F7FF55
:1056D400F86A070EF76403D00800F55005D0F6CF3A
:1056E400E1FFF7CFE2FFE7500009D8A47CEF2BF0ED
:1056F4007EEF2BF02EEF2BF080EF2BF01200036ED9
:10570400000E056E070E05648AEF2BF08CEF2BF06C
:1057140090EF2BF0DCEF2BF0DCEF2BF08A94400EB3
:10572400016E000ECCEC28F0400E016E010ECCECA4
:1057340028F00550B809016E000ECCEC28F0055095
:10574400B809016E010ECCEC28F08A84000E046EB8
:105754003F0E0464B0EF2BF0B2EF2BF0B6EF2BF05A
:10576400D1EF2BF0D1EF2BF00350010DF3500008D3
:10577400016E000ECCEC28F00350010DF35000082C
:10578400016E010ECCEC28F0042A3F0E0464CDEF28
:105794002BF0CFEF2BF0B6EF2BF0D1EF2BF0052A47
:1057A400070E0564D8EF2BF0DAEF2BF090EF2BF017
:1057B400DCEF2BF01200000E036E020E056E050ED8
:1057C4000564E7EF2BF0E9EF2BF0EDEF2BF039EF69
:1057D4002CF039EF2CF08A94400E016E000ECCECC4
:1057E40028F0400E016E010ECCEC28F00550B809EB
:1057F400016E000ECCEC28F00550B809016E010EC4
:10580400CCEC28F08A84000E046E3F0E04640DEF85
:105814002CF00FEF2CF013EF2CF02EEF2CF02EEFDA
:105824002CF00350010DF3500008016E000ECCEC77
:1058340028F00350010DF3500008016E010ECCEC6A
:1058440028F0042A3F0E04642AEF2CF02CEF2CF0ED
:1058540013EF2CF02EEF2CF0052A050E056435EF1E
:105864002CF037EF2CF0EDEF2BF039EF2CF0120089
:105874000001ADA140EF2CF042EF2CF04EEF2CF0E4
:1058840013C00AF014C00BF011C00CF012C00DF0DC
:105894000BEC29F04EEF2CF016BE53EF2CF055EF25
:1058A4002CF05BEF2CF015C01AF016C01BF05FEF64
:1058B4002CF0000E1B6E000E1A6E000E196E000EF8
:1058C400186E73EF2CF0000E026E200E016E11C0E4
:1058D40003F012C004F014EC2DF0184A192A73EFE7
:1058E4002CF01A50185C1950800A176E1B50800A4D
:1058F4001758D8A080EF2CF082EF2CF065EF2CF035
:105904000001ADB188EF2CF08AEF2CF096EF2CF06B
:1059140013C00AF014C00BF011C00CF012C00DF04B
:105924000BEC29F096EF2CF013C001F014C002F038
:1059340031EC29F01A500124116E1B500220126E12
:10594400A4EF2CF01200000E086E000E076E000E7D
:105954000A6E070E0A64B1EF2CF0B3EF2CF0B7EF28
:105964002CF011EF2DF011EF2DF0000E0B6E010E47
:105974000B64BFEF2CF0C1EF2CF0C5EF2CF008EF57
:105984002DF008EF2DF08A94400E016E0B50CCECF4
:1059940028F00A50B809016E0B50CCEC28F08A8428
:1059A400000E096E3F0E0964DAEF2CF0DCEF2CF0E8
:1059B400E0EF2CF0FDEF2CF0FDEF2CF0075003246A
:1059C400056E08500420066E05C0F6FF06C0F7FFFA
:1059D4000800F5CF01F00B50CCEC28F0074A082A58
:1059E400092A3F0E0964F9EF2CF0FBEF2CF0E0EFED
:1059F4002CF0FDEF2CF00B2A010E0B6404EF2DF0BC
:105A040006EF2DF0C5EF2CF008EF2DF00A2A070E53
:105A14000A640FEF2DF011EF2DF0B7EF2CF08A9000
:105A24008A92120003500410D8B41BEF2DF01DEF1E
:105A34002DF028EF2DF003500410D8A424EF2DF0FE
:105A440026EF2DF02DEF2DF028EF2DF001506AEC0C
:105A540028F082EF2DF020EE04F00350D9260450F4
:105A6400DA22DE50DE10D8B43AEF2DF03CEF2DF000
:105A740059EF2DF020EE04F00350D9260450DA2219
:105A840010EE02F00350E1260450E222DE50E65C00
:105A9400E650800A096EDE50800A0958D8B055EFE6
:105AA4002DF057EF2DF082EF2DF059EF2DF020EE71
:105AB40002F00350D9260450DA22DECF05F0DDCF00
:105AC40006F003C0D9FF04C0DAFFDECF07F0DDCF54
:105AD40008F005500724D96E06500820DA6E01C07C
:105AE400DFFF20EE02F00350D9260450DA22DE2A2A
:105AF400000EDD2282EF2DF082EF2DF082EF2DF0EB
:105B04001200D7C001F0D8C002F0D9C003F0DAC047
:105B140004F0DBC005F0DCC006F0DDC007F0DEC039
:105B240008F02D0E096E7F0E0A6E950E0B6E4C0E4C
:105B34000C6E2D0E0D6EF40E0E6E510E0F6E580E71
:105B4400106ED9EC2AF001C01BF002C01CF003C097
:105B54001DF004C01EF005C01FF006C020F007C0F1
:105B640021F008C022F0010E1B240001D76F000EA3
:105B74001C20D86F000E1D20D96F000E1E20DA6F76
:105B8400000E1F20DB6F000E2020DC6F000E212092
:105B9400DD6F000E2220DE6FD7C01BF0D8C01CF0D2
:105BA400D9C01DF0DAC01EF0DBC01FF0DCC020F04D
:105BB400DDC021F0DEC022F0080EEAEF2DF0D8900F
:105BC4002232213220321F321E321D321C321B324D
:105BD400E82EE1EF2DF01BC019F01DC01AF0F3EF11
:105BE4002DF01200000E066E04BEFDEF2DF0FBEF4B
:105BF4002DF005EF2EF0036C041ED8B0042A010E1C
:105C0400066E05EF2EF002BE0CEF2EF00AEF2EF01A
:105C140014EF2EF0016C021ED8B0022A010E061AEF
:105C240014EF2EF0000E086E000E076E03500410E1
:105C3400D8B41FEF2EF021EF2EF055EF2EF0010E09
:105C4400056E2BEF2EF0D89003360436052A2BEF81
:105C54002EF004AE30EF2EF032EF2EF025EF2EF0C2
:105C640036EF2EF036EF2EF0D89007360836035074
:105C7400015C04500258D8A042EF2EF044EF2EF0FD
:105C84004BEF2EF00350015E0450025A07804BEF95
:105C94002EF0D89004320332052E36EF2EF055EF55
:105CA4002EF055EF2EF00650D8B45BEF2EF05DEFDA
:105CB4002EF063EF2EF0076C081ED8B0082A63EFAD
:105CC4002EF007C001F008C002F069EF2EF01200B8
:105CD4006A0E586E000E596ED40E5A6E7F0E5B6EAD
:105CE400B3C05CF0B4C05DF05AEC29F07E0E586E7F
:105CF400000E596EDA0E5A6E7F0E5B6EB1C05CF008
:105D0400B2C05DF05AEC29F0920E586E000E596E36
:105D1400E00E5A6E7F0E5B6EAFC05CF0B0C05DF0FB
:105D24005AEC29F0000E81EC2BF0000E036E080EE5
:105D3400BCEC29F0BB0E0C6E7F0E0D6E010E0E6EC8
:105D4400010E0F6E2CEC2BF0020E036E100EBCEC49
:105D540029F06A0E0C6E000E0D6E010E0E6E010E11
:105D64000F6E2CEC2BF0030E036E100EBCEC29F01E
:105D74007E0E0C6E000E0D6E010E0E6E010E0F6E79
:105D84002CEC2BF0040E036E100EBCEC29F0920EDA
:105D94000C6E000E0D6E010E0E6E010E0F6E2CECCD
:105DA4002BF0D5EF2EF080A0DAEF2EF0DCEF2EF002
:105DB400D5EF2EF0DEEF2EF0010E026EF40E016E22
:105DC400F4EC29F01200086E000E0B6E0A0E08188F
:105DD400D8A4EFEF2EF0F1EF2EF0F9EF2EF0000E35
:105DE4000001B66FB52B7EEF2FF07EEF2FF03F0E44
:105DF4000001B66500EF2FF002EF2FF009EF2FF04E
:105E0400010E0B6EB651C00F096E0DEF2FF0B6C028
:105E140009F00DEF2FF00850080DF3CF06F0F4CF82
:105E240007F0000E0A6E070E0A641BEF2FF01DEF39
:105E34002FF021EF2FF07BEF2FF07BEF2FF03F0EB1
:105E4400096427EF2FF029EF2FF03EEF2FF0400EDB
:105E5400095E010E0B6E8A9409504009016E0B50C5
:105E6400CCEC28F00001B551B809016E0B50CCEC14
:105E740028F08A843EEF2FF00350D8B444EF2FF07B
:105E840046EF2FF05AEF2FF00A500624046E000E4E
:105E94000720056E9F0E0424F66E720E0520F76E21
:105EA4000800F5CF01F00B50CCEC28F06FEF2FF089
:105EB4000A500624046E000E0720056E9F0E04246B
:105EC400F66E720E0520F76E0800F550FF0A016E9B
:105ED4000B50CCEC28F06FEF2FF0092A0A2A070E9A
:105EE4000A6477EF2FF079EF2FF021EF2FF07BEF9B
:105EF4002FF0080E0001B6271200076E000E096E7F
:105F04000A0E0718D8A489EF2FF08BEF2FF093EF28
:105F14002FF0000E0001B66FB52B24EF30F024EF04
:105F240030F03F0E0001B6659AEF2FF09CEF2FF092
:105F3400A3EF2FF0010E096EB651C00F066EA7EF46
:105F44002FF0B6C006F0A7EF2FF0200E075E000E6C
:105F5400086E020E0864B1EF2FF0B3EF2FF0B7EF25
:105F64002FF021EF30F021EF30F03F0E0664BDEF4B
:105F74002FF0BFEF2FF0D4EF2FF0400E065E010E8E
:105F8400096E8A9406504009016E0950CCEC28F041
:105F94000001B551B809016E0950CCEC28F08A848F
:105FA400D4EF2FF00350D8B4DAEF2FF0DCEF2FF05A
:105FB400F8EF2FF00750030D9F0E046E7A0E056E56
:105FC400F3500426F45005220850010DF350042622
:105FD400F450052204C0F6FF05C0F7FF0800F5CF12
:105FE40001F00950CCEC28F015EF30F00750030D08
:105FF4009F0E046E7A0E056EF3500426F4500522AB
:106004000850010DF3500426F450052204C0F6FF95
:1060140005C0F7FF0800F550FF0A016E0950CCECEB
:1060240028F015EF30F0062A082A020E08641DEF46
:1060340030F01FEF30F0B7EF2FF021EF30F0030E08
:106044000001B6271200000E126E08BE2EEF30F0CB
:106054002CEF30F042EF30F0081E071E061E051E1E
:10606400041E031E021E016C000E022203220422DF
:106074000522062207220822010E126E42EF30F09A
:1060840010BE49EF30F047EF30F05BEF30F0101EF8
:106094000F1E0E1E0D1E0C1E0B1E0A1E096C000E7A
:1060A4000A220B220C220D220E220F2210225BEF59
:1060B40030F009500A100B100C100D100E100F10B8
:1060C4001010D8B468EF30F06AEF30F0BEEF30F063
:1060D400010E116E7AEF30F0D89009360A360B367D
:1060E4000C360D360E360F361036112A7AEF30F094
:1060F40010AE7FEF30F081EF30F06EEF30F085EFCF
:1061040030F085EF30F00950015C0A5002580B5012
:1061140003580C5004580D5005580E5006580F5093
:10612400075810500858D8A09AEF30F09CEF30F080
:10613400AEEF30F00950015E0A50025A0B50035A78
:106144000C50045A0D50055A0E50065A0F50075A57
:106154001050085AAEEF30F0D89010320F320E3291
:106164000D320C320B320A320932112E85EF30F027
:10617400BEEF30F0BEEF30F01250D8B4C4EF30F0C0
:10618400C6EF30F0D8EF30F0081E071E061E051EBD
:10619400041E031E021E016C000E022203220422AE
:1061A4000522062207220822D8EF30F001C001F0B0
:1061B40002C002F003C003F004C004F005C005F0FF
:1061C40006C006F007C007F008C008F0EAEF30F098
:1061D4001200156E4F0E0C6E010E0D6E000E146E35
:1061E400000E106E000E116E15BEFBEF30F0FDEFC9
:1061F40030F013EF31F006C003F01550BCEC29F079
:106204001550800A080FD8A00AEF31F00CEF31F0D6
:106214001DEF31F01550890F116E1DEF31F01DEF98
:1062240031F006C003F0000EBCEC29F01550000854
:10623400106E1DEF31F03F0E0001B66524EF31F012
:1062440026EF31F02DEF31F0010E146EB651C00F70
:10625400126E31EF31F0B6C012F031EF31F00C5064
:10626400080DF3CF0EF0F4CF0FF010C013F08DEF44
:1062740031F03F0E126441EF31F043EF31F058EF4B
:1062840031F0400E125E010E146E8A9412504009D1
:10629400016E1450CCEC28F00001B551B809016E20
:1062A4001450CCEC28F08A8458EF31F00D50D8B457
:1062B4005EEF31F060EF31F074EF31F013500E24E3
:1062C400076E000E0F20086E9F0E0724F66E720EE6
:1062D4000820F76E0800F5CF01F01450CCEC28F03C
:1062E40089EF31F013500E24076E000E0F20086E54
:1062F4009F0E0724F66E720E0820F76E0800F55004
:10630400FF0A016E1450CCEC28F089EF31F0122A08
:10631400132A8DEF31F01150076E086A071E081E0C
:10632400074A082A080E0726000E08221350096E91
:106334000A6A0750095C0A50800A0B6E0850800AEA
:106344000B58D8A0A8EF31F0AAEF31F03BEF31F0B1
:10635400ACEF31F0105011240008080F0001B627EB
:106364001200000E0001A66FB8EF31F080A2BDEF5D
:1063740031F0BFEF31F0D1EF31F0020E0001A66130
:10638400C6EF31F0C8EF31F0CBEF31F0A62BD1EFEF
:1063940031F0000EA66FD1EF31F0D1EF31F080A4CF
:1063A400D6EF31F0D8EF31F0EAEF31F00001A65129
:1063B400D8B4DFEF31F0E1EF31F0E4EF31F0A607CC
:1063C400EAEF31F0020EA66FEAEF31F0EAEF31F0B6
:1063D400000E81EC2BF0000E036E180EBCEC29F0BD
:1063E400C80E0C6E7F0E0D6E010E0E6E010E0F6E3A
:1063F4002CEC2BF0000E036E400EBCEC29F0CE0EFC
:106404000C6E7F0E0D6E010E0E6E010E0F6E2CECD7
:106414002BF0020E036E100EBCEC29F0F50E0C6E80
:106424007F0E0D6E010E0E6E010E0F6E2CEC2BF016
:10643400030E036E100EBCEC29F0BB0E0C6E7F0E27
:106444000D6E010E0E6E010E0F6E2CEC2BF0040E71
:10645400036E100EBCEC29F0EB0E0C6E7F0E0D6E6D
:10646400010E0E6E010E0F6E2CEC2BF00001A651E6
:10647400020F036E600EBCEC29F0010E036E3C0E9D
:10648400E5EC2EF0010E026EF40E016EF4EC29F030
:1064940080A04FEF32F051EF32F0B8EF31F053EF0C
:1064A40032F0010E026EF40E016EF4EC29F06BEF83
:1064B40032F0C4EC36F085EF32F06AEC2EF085EF62
:1064C40032F088EC2AF085EF32F0C4EC36F085EF38
:1064D40032F00001A6515E6E5F6A5F50000AD8B4C4
:1064E40076EF32F067EF32F05E50000AD8B45BEF1B
:1064F40032F0010AD8B45FEF32F0030AD8B463EF84
:1065040032F067EF32F01200000E126E10BE8FEF01
:1065140032F08DEF32F0A3EF32F0101E0F1E0E1E7C
:106524000D1E0C1E0B1E0A1E096C000E0A220B22E5
:106534000C220D220E220F221022010E126EA3EF46
:1065440032F008BEAAEF32F0A8EF32F0BEEF32F01C
:10655400081E071E061E051E041E031E021E016CD5
:10656400000E022203220422052206220722082208
:10657400010E121ABEEF32F020EE13F0070EDE6A9F
:10658400E806FDE209500A100B100C100D100E1055
:106594000F101010D8B4D1EF32F0D3EF32F031EF46
:1065A40033F0010E116EE3EF32F0D89009360A365B
:1065B4000B360C360D360E360F361036112AE3EF35
:1065C40032F010AEE8EF32F0EAEF32F0D7EF32F00B
:1065D400EEEF32F0EEEF32F0D89013361436153673
:1065E40016361736183619361A360950015C0A5011
:1065F40002580B5003580C5004580D5005580E50B7
:1066040006580F50075810500858D8A00CEF33F014
:106614000EEF33F021EF33F00950015E0A50025AB5
:106624000B50035A0C50045A0D50055A0E50065A7A
:106634000F50075A1050085A138021EF33F0D890A6
:1066440010320F320E320D320C320B320A32093252
:10665400112EEEEF32F031EF33F031EF33F0125010
:10666400D8B437EF33F039EF33F04BEF33F01A1E71
:10667400191E181E171E161E151E141E136C000E4E
:106684001422152216221722182219221A224BEF3D
:1066940033F013C001F014C002F015C003F016C0AB
:1066A40004F017C005F018C006F019C007F01AC0AE
:1066B40008F05DEF33F0120042C0D9FF43C0DAFFA7
:1066C400DECFF6FFDDCFF7FF0800F550250AD8A48A
:1066D4006EEF33F070EF33F024EF34F042C0D9FFA3
:1066E40043C0DAFFDE2A000EDD22000E0001AA6F8D
:1066F400000EA96FA9C0ADF0AAC0AEF0AB69AC6939
:1067040042C0D9FF43C0DAFFDECFF6FFDDCFF7FF8B
:106714000800F550640AD8B492EF33F094EF33F0E4
:10672400A8EF33F042C0D9FF43C0DAFFDECFF6FF53
:10673400DDCFF7FF0800F550690AD8A4A4EF33F0C1
:10674400A6EF33F0EAEF33F0A8EF33F042C0D9FFFD
:1067540043C0DAFFDE2A000EDD2244C0D9FF45C063
:10676400DAFFDFCF46F0020EDE26DFCF47F0000E61
:10677400DD2246C0D9FF47C0DAFFDECF48F0DDCFC7
:1067840049F0000E49BEFF0E4A6E4B6E4C6E4D6EC4
:106794004E6E4F6E40C01CF041C01DF048C01EF04C
:1067A40049C01FF04AC020F04BC021F04CC022F079
:1067B4004DC023F04EC024F04FC025F035EC35F029
:1067C4001CC040F01DC041F043EF34F043EF34F0FF
:1067D40042C0D9FF43C0DAFFDECFF6FFDDCFF7FFBB
:1067E4000800F550250AD8A4FAEF33F0FCEF33F093
:1067F40015EF34F042C0D9FF43C0DAFFDE2A000EA1
:10680400DD22000E026E250E016E40C003F041C071
:1068140004F014EC2DF0000E416E010E406E43EFB7
:1068240034F043EF34F042C0D9FF43C0DAFFDE2A2C
:10683400000EDD22000E416E000E406E43EF34F078
:1068440043EF34F042C0D9FF43C0DAFFDECFF6FF96
:10685400DDCFF7FF0800F550016E026A40C003F077
:1068640041C004F014EC2DF042C0D9FF43C0DAFF5C
:10687400DE2A000EDD22000E416E010E406E43EF53
:1068840034F012000E6E100E126E09C001F0026A8E
:10689400000E046E080E036EF4EC2DF00150146E1D
:1068A4000950070B116E000E136E070E14645DEF92
:1068B40034F05FEF34F063EF34F034EF35F034EF5D
:1068C40035F012C0B6F014C0B5F08A9412504009E5
:1068D400016E1350CCEC28F01450B809016E13501B
:1068E400CCEC28F08A840E50016E026A01BE0206C6
:1068F400000E046E080E036E85EC28F0100E0124C1
:106904000F6E000E0220106E000E156E070E156439
:106914008EEF34F090EF34F094EF34F0BEEF34F0B7
:10692400BEEF34F011C00AF015500F240B6E000EA8
:1069340010200C6E620E0B24F66E7B0E0C20F76E8C
:106944000800F5CF0DF00A2AAAEF34F0D8900D36DE
:106954000A2EA8EF34F00D50016E1350CCEC28F041
:10696400122A152A070E1564BAEF34F0BCEF34F07E
:1069740094EF34F0BEEF34F0100E126E142A11505E
:10698400D8B4C7EF34F0C9EF34F031EF35F0080E66
:106994001460CFEF34F0D1EF34F031EF35F012C0A2
:1069A400B6F014C0B5F08A9412504009016E135029
:1069B400CCEC28F01450B809016E1350CCEC28F03C
:1069C4008A840E50016E026A01BE0206000E046E35
:1069D400080E036E85EC28F0100E01240F6E000ED5
:1069E4000220106E000E156E070E1564FCEF34F0D5
:1069F400FEEF34F002EF35F031EF35F031EF35F0E2
:106A0400115000080A6E080E0A2615500F240B6E4A
:106A1400000E10200C6E620E0B24F66E7B0E0C2002
:106A2400F76E0800F5CF0DF00A2A1BEF35F0D89069
:106A34000D320A2E19EF35F00D50016E1350CCECC7
:106A440028F0122A152A070E15642BEF35F02DEFC6
:106A540035F002EF35F031EF35F031EF35F0080E57
:106A64000001B62712001EC036F01FC037F020C048
:106A740038F021C039F022C03AF023C03BF024C0E2
:106A84003CF025C03DF03DBE4AEF35F04DEF35F00A
:106A9400010E4EEF35F0000E346E356A3450351069
:106AA400D8B457EF35F059EF35F06BEF35F03D1EA4
:106AB4003C1E3B1E3A1E391E381E371E366C000E15
:106AC4003722382239223A223B223C223D226BEFE4
:106AD40035F00001ACBF71EF35F073EF35F076EFB0
:106AE40035F0AD9376EF35F0ACBF83EF35F0AC51B4
:106AF40006E1AB05D8B081EF35F083EF35F089EFCF
:106B040035F0000E316E010E306E8DEF35F0ABC0F6
:106B140030F0ACC031F0A9C032F0AAC033F0345028
:106B24003510D8A498EF35F09AEF35F0A3EF35F08F
:106B3400ADA59FEF35F0A1EF35F0A8EF35F0A3EF49
:106B440035F03206D8A03306A8EF35F0000E3F6EBC
:106B54001F0E3E6EB70E3E24D96E000E3F20DA6E35
:106B6400000EDF6E34EF36F03E06D8A03F06B70EB7
:106B74003E24D96E000E3F20DA6E36C001F037C0D5
:106B840002F038C003F039C004F03AC005F03BC04D
:106B940006F03CC007F03DC008F00A0E096E000E76
:106BA4000A6E000E0B6E000E0C6E000E0D6E000EC3
:106BB4000E6E000E0F6E000E106E25EC30F001C04C
:106BC40026F002C027F003C028F004C029F005C055
:106BD4002AF006C02BF007C02CF008C02DF026C008
:106BE40013F028C014F0E9EC28F01350300FDF6ED6
:106BF4003006D8A031063206D8A0330636C001F0DC
:106C040037C002F038C003F039C004F03AC005F0D0
:106C14003BC006F03CC007F03DC008F00A0E096E08
:106C2400000E0A6E000E0B6E000E0C6E000E0D6E42
:106C3400000E0E6E000E0F6E000E106E86EC32F01B
:106C440001C036F002C037F003C038F004C039F098
:106C540005C03AF006C03BF007C03CF008C03DF068
:106C640034EF36F03FBE3FEF36F03F5008E13E04CC
:106C7400D8A03FEF36F041EF36F078EF36F03650DB
:106C84003710381039103A103B103C103D10D8A47E
:106C94004EEF36F050EF36F0B6EF35F031BE5DEF23
:106CA40036F0315006E13004D8B05BEF36F05DEFDA
:106CB40036F0B6EF35F033BE68EF36F0335008E106
:106CC4003204D8A068EF36F06AEF36F078EF36F089
:106CD4000001ADB370EF36F072EF36F0B6EF35F079
:106CE40078EF36F078EF36F078EF36F03450351030
:106CF400D8A47FEF36F081EF36F08BEF36F0000149
:106D0400ADA587EF36F089EF36F0ADEF36F08BEFB7
:106D140036F03E06D8A03F0634503510D8A495EF7F
:106D240036F097EF36F09DEF36F0000E2F6E2B0EF7
:106D34002E6EA3EF36F0000E2F6E2D0E2E6EA3EFE7
:106D440036F0B70E3E24D96E000E3F20DA6E2EC008
:106D5400DFFFADEF36F01CC011F01DC012F0B70E0E
:106D64003E24136E000E3F20146E32C015F033C063
:106D740016F03AEC2CF011C01CF012C01DF0C3EF59
:106D840036F012001C0E00018B6F000E8C6F000E8B
:106D94008D6F020E8D65D1EF36F0D3EF36F0D7EF5D
:106DA40036F001EF37F001EF37F076EC28F0000110
:106DB4008D51020D830EF324D96E000EF420DA6E89
:106DC40023C0DEFF24C0DDFF8D51020D830EF324AA
:106DD400D96E000EF420DA6E8D290008030F2A0DF7
:106DE400F35000087F0FDF6E8D2B020E8D65FDEFD3
:106DF40036F0FFEF36F0D7EF36F001EF37F0000E44
:106E0400826F000E8A6F000E896F8A0E036E7B0EEE
:106E1400046EA5EC2CF0070E036E180EBCEC29F0E2
:106E2400C20E0C6E7F0E0D6E010E0E6E010E0F6EF5
:106E34002CEC2BF0DAEF38F080A423EF37F025EFB9
:106E440037F028EF37F08C2B28EF37F080A22DEFA6
:106E540037F02FEF37F032EF37F08C0732EF37F09F
:106E64008C51800A7D0FD8A03AEF37F03CEF37F011
:106E740040EF37F0020E8C6F40EF37F08C51800AF0
:106E8400820FD8B048EF37F04AEF37F04EEF37F0C3
:106E9400FE0E8C6F4EEF37F08C518B5F100E8B61B2
:106EA40056EF37F058EF37F05CEF37F0100E8B6F7A
:106EB40068EF37F0280E8B6562EF37F064EF37F038
:106EC40068EF37F0280E8B6F68EF37F0000E8D6F88
:106ED400020E8D6570EF37F072EF37F076EF37F012
:106EE400B0EF37F0B0EF37F08D51020D830EF3247D
:106EF400D96E000EF420DA6EDF50800A850FD8A018
:106F040086EF37F088EF37F094EF37F08D51020DAC
:106F1400830EF324D96E000EF420DA6EFE0EDF2603
:106F2400A5EF37F076EC28F000018D51020D830EA9
:106F3400F324D96E000EF420DA6E23C0DEFF24C0E1
:106F4400DDFFA5EF37F08D2B020E8D65ACEF37F02A
:106F5400AEEF37F076EF37F0B0EF37F0000E8D6F0D
:106F6400020E8D65B8EF37F0BAEF37F0BEEF37F0A9
:106F740065EF38F065EF38F0F00E6A6FFF0E6B6F57
:106F84008D51020D830EF324D96E000EF420DA6EB7
:106F9400DF506C6F6D6B6CBF6D076A516C276B5162
:106FA4006D236DBFE1EF37F06D5107E1080E6C5DA5
:106FB400D8B0DFEF37F0E1EF37F05AEF38F0F00EEA
:106FC4006A6FFF0E6B6F8D51020D830EF324D96E21
:106FD400000EF420DA6EDF506C6F6D6B6CBF6D07C2
:106FE4006A516C276B516D236DAF04EF38F0F90EC5
:106FF4006C5DFF0E6D59D8A002EF38F004EF38F045
:107004005AEF38F08B516A6F6B6B6A1F6B1F6A4BB8
:107014006B2B8D51020D010EF326000EF422830E0C
:10702400F324D96E000EF420DA6EDF506C6F6C51CD
:10703400080D6A51F3266B51F422F4BE2DEF38F09B
:10704400F45007E1080EF35CD8B02BEF38F02DEFC5
:1070540038F05AEF38F08B516A6F6B6B6A1F6B1FF5
:107064006A4B6B2B8D51020D010EF326000EF42298
:10707400830EF324D96E000EF420DA6EDF506C6FA9
:107084006C51080D6A51F3266B51F422F4AE56EF9D
:1070940038F0F90EF35CFF0EF458D8A054EF38F032
:1070A40056EF38F05AEF38F0010E826F5AEF38F08D
:1070B4008D2B020E8D6561EF38F063EF38F0BEEF73
:1070C40037F065EF38F0DDEC2BF06E0E586E000EE5
:1070D400596EFA0E5A6E7F0E5B6E89C05CF08AC0E0
:1070E4005DF05AEC29F0070E036E400EBCEC29F05B
:1070F4006E0E0C6E000E0D6E010E0E6E010E0F6EF6
:107104002CEC2BF0000E00018D6F020E8D658DEFBF
:1071140038F08FEF38F093EF38F0B8EF38F0B8EF7D
:1071240038F08D51020D010EF326000EF422830E69
:10713400F324D96E000EF420DA6EDF50066E8D5102
:10714400020D830EF324D96E000EF420DA6EDF50A4
:10715400EBEC30F000018D2B020E8D65B4EF38F0AE
:10716400B6EF38F093EF38F0B8EF38F08BC009F091
:107174008C5144EC34F0000189518A11D8A4C5EF34
:1071840038F0C7EF38F0CFEF38F0130E026E880EE8
:10719400016EF4EC29F0CFEF38F00001894B8A2B13
:1071A400010E026EF40E016EF4EC29F0DAEF38F001
:1071B40000018251D8B4E1EF38F0E3EF38F01EEF6C
:1071C40037F0E5EF38F08951B35D8A51B459D8B03E
:1071D400EEEF38F0F0EF38F0F6EF38F089C0B3F0A6
:1071E4008AC0B4F01CEF39F08951B15D8A51B259AB
:1071F400D8B0FFEF38F001EF39F007EF39F089C06C
:10720400B1F08AC0B2F01CEF39F08951AF5D8A51F8
:10721400B059D8B010EF39F012EF39F01CEF39F053
:1072240089C0AFF08AC0B0F01CEF39F01CEF39F020
:107234001CEF39F0010E81EC2BF0030E036E180ED7
:10724400BCEC29F0E60E0C6E7F0E0D6E010E0E6E78
:10725400000E0F6E2CEC2BF0030E036E400EBCECF4
:1072640029F0F00E0C6E7F0E0D6E010E0E6E000EE8
:107274000F6E2CEC2BF03FEF39F080A044EF39F087
:1072840046EF39F03FEF39F048EF39F0010E026E66
:10729400F40E016EF4EC29F012000000000000006E
:1072A40000000000000000000000000000000000DA
:1072B40000000000000000000000000000000000CA
:1072C40000000000000000000000000000000000BA
:1072D40000000000000000000000000000000000AA
:1072E400000000000000000000000000000000009A
:1072F400000000000000000000000000000000008A
:107304000000000000000000000000000000000079
:107314000000000000000000000000000000000069
:107324000000000000000000000000000000000059
:107334000000000000000000000000000000000049
:107344000000000000000000000000000000000039
:107354000000000000000000000000000000000029
:107364000000000000000000000000000000000019
:107374000000000000000000000000000000000009
:1073840000000000000000000000000000000000F9
:1073940000000000000000000000000000000000E9
:1073A40000000000065F5F060000000007070007FA
:1073B400070000147F7F147F7F1400242E6B6B3A28
:1073C400120000466630180C666200307A4F5D3752
:1073D4007A48000407030000000000001C3E6341DB
:1073E4000000000041633E1C000000082A3E1C1CF3
:1073F4003E2A0808083E3E080800000080E06000BD
:107404000000000808080808080000000060600088
:107414000000006030180C060301003E7F71594DD6
:107424007F3E0040427F7F40400000627359496FB5
:10743400660000226349497F360000181C16537FFA
:107444007F5000276745457D3900003C7E4B4979D4
:10745400300000030371790F070000367F49497F2C
:10746400360000064F49693F1E00000000666600B2
:107474000000000080E66600000000081C3663413E
:107484000000002424242424240000004163361C2A
:10749400080000020351590F0600003E7F415D5D64
:1074A4001F1E007C7E13137E7C0000417F7F4949B0
:1074B4007F36001C3E634141632200417F7F41636C
:1074C4003E1C00417F7F495D416300417F7F491D30
:1074D4000103001C3E6341517372007F7F08087FE3
:1074E4007F000000417F7F41000000307040417FF9
:1074F4003F0100417F7F081C776300417F7F41404B
:107504006070007F7F0E1C0E7F7F007F7F060C184B
:107514007F7F001C3E6341633E1C00417F7F49091D
:107524000F06001E3F21717F5E0000417F7F091915
:107534007F6600266F4D597332000003417F7F41FF
:107544000300007F7F40407F7F00001F3F60603F5B
:107554001F00007F7F3018307F7F0043673C183C5A
:10756400674300074F78784F070000476371594D10
:10757400677300007F7F41410000000103060C187F
:107584003060000041417F7F000000080C060306C4
:107594000C080080808080808080800000030704C5
:1075A400000000207454543C784000417F3F484818
:1075B400783000387C44446C280000307848493FD7
:1075C4007F4000387C54545C180000487E7F490397
:1075D40002000098BCA4A4F87C0400417F7F080446
:1075E4007C780000447D7D4000000060E08080FDE8
:1075F4007D0000417F7F10386C440000417F7F4054
:107604000000007C7C18381C7C78007C7C04047CA2
:10761400780000387C44447C38000084FCF8A424BE
:107624003C1800183C24A4F8FC8400447C784C04E6
:107634001C1800485C54547424000000043E7F4429
:107644002400003C7C40403C7C40001C3C60603C8E
:107654001C00003C7C7038707C3C00446C38103852
:107664006C44009CBCA0A0FC7C00004C64745C4C8A
:1076740064000008083E774141000000000077776D
:107684000000004141773E080800000203010302A4
:1076940003010070784C464C7870000E9F91B1FB4A
:1076A4004A00003A7A40407A7A4000387C54555D6A
:1076B40019000002237555557D7B42217554547D74
:1076C400794000217555547C784000207457577CCC
:1076D400784000183CA4A4E4400000023B7D5555CA
:1076E4005D1B02397D54545D190000397D55545C8D
:1076F40018000001457C7C410100000203457D7DAA
:1077040043020001457D7C40000000797D1612167D
:107714007D790070782B2B78700000447C7C555563
:10772400450000207454547C7C54547C7E0B097FA7
:107734007F4900327B49497B320000327A48487ADB
:10774400320000327A4A48783000003A7B41417B6B
:107754007A40003A7A4240787840009ABAA0A0FA77
:107764007A000001193C66663C19013D7D40407D6C
:107774003D0000183C24E7E7242400687E7F494349
:107784006620002B2FFCFC2F2B0000FFFF09092F84
:10779400F6F8A040C088FE7F090302207454557D8A
:1077A40079400000447D7D410000003078484A7AE9
:1077B400320000387840427A7A40007A7A0A0A7AAB
:1077C4007000007D7D19317D7D000000262F292F5A
:1077D4002F280000262F292F26000030784D4560E1
:1077E400200000383808080808000008080808388D
:1077F4003800004F6F3018CCEEBB914F6F30186CCF
:1078040076FBF90000007B7B000000081C36220890
:107814001C362222361C0822361C08AA005500AA4F
:10782400005500AA55AA55AA55AA55DDFFAA77DD29
:10783400AAFF77000000FFFF000000101010FFFFF8
:10784400000000141414FFFF0000001010FFFF00DC
:10785400FFFF001010F0F010F0F000141414FCFC02
:107864000000001414F7F700FFFF000000FFFF0002
:10787400FFFF001414F4F404FCFC00141417171094
:107884001F1F0010101F1F101F1F001414141F1F90
:10789400000000101010F0F00000000000001F1F96
:1078A4001010101010101F1F101010101010F0F0F6
:1078B400101010000000FFFF101010101010101016
:1078C400101010101010FFFF101010000000FFFF28
:1078D4001414140000FFFF00FFFF1000001F1F100E
:1078E4001717140000FCFC04F4F4141414171710F4
:1078F4001717141414F4F404F4F4140000FFFF0034
:10790400F7F71414141414141414141414F7F700BB
:10791400F7F714141414171714141410101F1F104D
:107924001F1F10141414F4F41414141010F0F01095
:10793400F0F01000001F1F101F1F100000001F1F79
:10794400141414000000FCFC1414140000F0F010D3
:10795400F0F0101010FFFF10FFFF10141414FFFFBD
:107964001414141010101F1F000000000000F0F089
:10797400101010FFFFFFFFFFFFFFFFF0F0F0F0F02B
:10798400F0F0F0FFFFFFFF0000000000000000FF28
:10799400FFFFFF0F0F0F0F0F0F0F0F387C446C38D2
:1079A4006C4400FCFE2A2A3E1400007E7E0202067D
:1079B400060000027E7E027E7E020063775D4963DC
:1079C400630000387C447C3C04040080FE7E20205C
:1079D4003E1E000406027E7C06020099BDE7E7BD58
:1079E4009900001C3E6B496B3E1C004C7E73017376
:1079F4007E4C0030784A4F7D390000183C243C3CD2
:107A0400243C1898FC643C3E273D1800000000000C
:107A14000000000000000000000000000000000062
:107A24000000000000000000000000000000000052
:107A34000000000000000000000000000000000042
:107A44000000000000000000000000000000000032
:107A54000000000000000000000000000000000022
:107A64000000000000000000000000000000000012
:107A74000000000000000000000000000000000002
:107A840000000000000000000000000000000000F2
:107A94000000000000000000000000000000005C86
:107AA400000C000C7C287C7C447C2410482854085E
:107AB400000C0038440044380020100810381080AE
:107AC4004000101010004000201008384438007C9A
:107AD400006454484454281C107C4C5424385420CA
:107AE40004740C28542808543800500080500010A6
:107AF4002844282828442810045408384C5C781456
:107B0400787C54283844447C44387C54447C1404A1
:107B14003844347C107C007C0020403C7C106C7C1D
:107B240040407C087C7C047C7C447C7C1408384485
:107B3400787C1468485424047C047C407C3C403C9D
:107B44007C207C6C106C1C601C64544C7C440008CD
:107B54001020447C00080408808080040800000E83
:107B64001E3C3C787000080C1C1C38383010181867
:107B74003C3C3C3C1818103038381C1C0C08007075
:107B8400783C3C1E0E0000039FFFEFCF8301216170
:107B940020000381C1E17130F8180C0800C103070B
:107BA4009F9F3FFFFFFFCF000000000003C78E1C14
:107BB4001E1E18100000000000F8ECF97F1F008062
:107BC400E3731B191B1B000080C17F3C00181E07B8
:107BD4000020303818CCCC4303070FFFFFFFFFFF12
:107BE400FF07C36120000103C762606000040687C9
:107BF400FCF98180860E0C000000030110307060D7
:107C040008787DFCFC9FF0FCFFFFFFFFFFFEF4F013
:107C1400F0F0F2FFFFF0F0F0F0F0F0F0F8F7F7F02A
:107C2400FFFFFCFFFFFFFFFEFEFCFCF0F0F0F9F8A5
:107C3400F0F0F0F0F1FEF8F0F8FFFFF0F0F8F8F8EB
:107C4400FCFCFCF8F8FCFEFFFFFEFCF8F0F1F1F39D
:107C5400F3F8FCFCF8F0F0F8FCFCFEFFFFFFFFFF7C
:107C6400FFFFFFFCF8F8FCFCF4F4FEFEFCFCFEFF56
:107C7400FFFFFFFFFBF9F8FFF6F6FCFCFCFEFFFE3E
:107C8400F8F8FCFFFFFF0000000000000000000007
:107C940000000000000000000000000000000000E0
:107CA40000000000000000000000000000000000D0
:107CB40000000000000000000000000000000000C0
:107CC40000000000000000000000000000000000B0
:107CD40000000000000000000000000000000000A0
:107CE4000000000000000000000000000000000090
:107CF4000000000000000000000000000000000080
:107D0400000000000000000000000000000000006F
:107D1400000000000000000000000000000000005F
:107D2400000000000000000000000000000000004F
:107D3400000000000000000000000000000000003F
:107D4400000000000000000000000000000000002F
:107D5400000000000000000000000000000000001F
:107D6400000000000000000000000000000000000F
:107D740000000000000000000000000000000000FF
:107D840000000000000000000000000000000000EF
:107D940000000000000000000000000000000000DF
:107DA40000000000000000000000000000000000CF
:107DB40000000000000000000000000000000000BF
:107DC40000000000000000000000000000000000AF
:107DD400000000000000000000000000000000009F
:107DE400000000000000000000000000000000008F
:107DF400000000000000000000000000000000007F
:107E0400000000000000000000000000000000006E
:107E1400000000000000000000000000000000005E
:107E2400000000000000000000000000000000004E
:107E3400000000000000000000000000000000003E
:107E4400000000000000000000000000000000002E
:107E5400000000000000000000000000000000001E
:107E6400000000000000000000000000000000000E
:107E740000000000000000000000000000000000FE
:107E84000000000000004F9F3F3F1F0F0F0F8F6F38
:107E94001F1F0F0F0FCFEF6F4F0F1F1F0F0F8F3FBE
:107EA4007F8F0F0F0F1F1F0F0F8F8F0F2FEFFFFFEE
:107EB400FFFFFFFFFFFFFFFFFFFF3F3F4F6F6F6FAE
:107EC4004F0F0F0F0F0F8FFF3F1F1FCFCFEFCF0F9E
:107ED4000F0F0F1F9FCFCFFF6F6F0F0FCFCF6F3FCE
:107EE4001F0F0F8FCF0F0F0F0F3FFFFFFFFFFFFF7E
:107EF4007F3F0F0F0F0F2F0F0F8FCF8F8F8F9F3F4E
:107F04006FCF8FCFEFEF0000C0F0F49CFCFC7D78C6
:107F1400086070301001030000000C0E868081F9A7
:107F2400FC87060400606062C70301002061C30788
:107F3400FFFFFFFFFFFF0F070343CCCC18383020AF
:107F440000071E18003C7FC18000001B1B191B7317
:107F5400E380001F7FF9ECF8000000000010181EF9
:107F64001E1C8EC7030000000000CFFFFFFF3F9FD1
:107F7400900000C100080C18F83071E1C1810300C1
:107F84002061210183CF41564F4944205448452064
:107F9400524F434B5321005241313A20524F5441E6
:107FA400544520444F574E005241323A20524F54C8
:107FB4004154452055500053636F72657300534319
:107FC4004F524500504144444C0045424F415400F7
:107FD400312E20256400322E20256400332E2025E6
:107FE400640047616D650048656C70004F7665728A
:0B7FF40000506C6179003D2564000026
:020000040020DA
:08000000FFFFFFFFFFFFFFFF00
:020000040030CA
:0E000000000C191EFF8381FF0FC00FE00F40A0
:00000001FF
